:100000000C9463000C948B000C948B000C948B006C
:100010000C948B000C948B000C948B000C948B0034
:100020000C948B000C948B000C948B000C945F044C
:100030000C948B000C948B000C948B000C948B0014
:100040000C9415040C948B000C94E3030C94BD03E6
:100050000C948B000C948B000C948B000C948B00F4
:100060000C948B000C948B000000000024002700EF
:100070002A0000000000250028002B0000000000DE
:1000800023002600290004040404040404040202DA
:100090000202020203030303030301020408102007
:1000A0004080010204081020010204081020000012
:1000B0000008000201000003040700000000000027
:1000C00000001B057C0811241FBECFEFD8E0DEBF67
:1000D000CDBF11E0A0E0B1E0EAE5F6E102C0059095
:1000E0000D92AE34B107D9F722E0AEE4B1E001C021
:1000F0001D92A537B207E1F710E0C2E6D0E004C0D8
:100100002197FE010E942809C136D107C9F70E9434
:10011000E1050C94200B0C9400008F929F92AF92FB
:10012000BF92FF920F931F93CF93DF93F0906802DB
:100130002BE02F1508F44CC020916A0208E512E06C
:10014000021B110927FD1395000F111F000F111F2E
:1001500020916902C8E8D0E0C21BD10927FDD395E0
:10016000CC0FDD1FCC0FDD1F4E010D2E000CAA0899
:10017000BB089801012E000C440B550B28193909B6
:100180004A095B09DC010E94CE0824EB30E040E024
:1001900050E00E94A408820E931EA41EB51E8C1669
:1001A0009D062CF0E801801691060CF4E4012297DC
:1001B000CC0FDD1F2FB7F8948F2D90E0FC01EE0FD0
:1001C000FF1FE80FF91FED5BFD4FD283C1832FBFE7
:1001D000DF91CF911F910F91FF90BF90AF909F90B3
:1001E0008F900895AF92BF92CF92DF92EF92FF92DD
:1001F0000F931F93CF93DF936C017B018B01040F4F
:10020000151FEB015E01AE18BF08C017D10759F0EA
:100210006991D601ED91FC910190F081E02DC6012C
:100220000995892B79F7C501DF91CF911F910F9126
:10023000FF90EF90DF90CF90BF90AF900895FC01BA
:10024000538D448D252F30E0842F90E0821B930B3B
:10025000541710F0CF96089501970895FC01918DE1
:10026000828D981761F0A28DAE0FBF2FB11D5D96E4
:100270008C91928D9F5F9F73928F90E008958FEF86
:100280009FEF0895FC01918D828D981731F0828D3A
:10029000E80FF11D858D90E008958FEF9FEF089591
:1002A000FC01918D228D892F90E0805C9F4F821BF5
:1002B00091098F739927089580E691E00E9450017B
:1002C00021E0892B09F420E0822F089580E090E05E
:1002D000892B29F00E945C0181110C940000089583
:1002E000FC01A48DA80FB92FB11DA35ABF4F2C91AB
:1002F000848D90E001968F739927848FA689B789A2
:100300002C93A089B1898C91837080648C93938D98
:10031000848D981306C00288F389E02D80818F7D3B
:1003200080830895EF92FF920F931F93CF93DF93F3
:10033000EC0181E0888F9B8D8C8D98131AC0E88921
:10034000F989808185FF15C09FB7F894EE89FF89F0
:100350006083E889F98980818370806480839FBF8E
:1003600081E090E0DF91CF911F910F91FF90EF908E
:100370000895F62E0B8D10E00F5F1F4F0F7311279E
:10038000E02E8C8D8E110CC00FB607FCFACFE889D9
:10039000F989808185FFF5CFCE010E947001F1CFF0
:1003A000EB8DEC0FFD2FF11DE35AFF4FF0829FB74D
:1003B000F8940B8FEA89FB8980818062CFCFCF933D
:1003C000DF93EC01888D8823B9F0AA89BB89E8897D
:1003D000F9898C9185FD03C0808186FD0DC00FB623
:1003E00007FCF7CF8C9185FFF2CF808185FFEDCFA1
:1003F000CE010E947001E9CFDF91CF910895833043
:1004000081F028F4813099F08230A9F00895873086
:10041000A9F08830C9F08430B1F4809180008F7DDC
:1004200003C0809180008F7780938000089584B509
:100430008F7784BD089584B58F7DFBCF8091B00008
:100440008F778093B00008958091B0008F7DF9CFB1
:10045000CF93DF93282F30E0F901E255FF4F8491CD
:10046000F901E656FF4FD491F901EA57FF4FC491C5
:10047000CC23A1F081110E94FF01EC2FF0E0EE0FE0
:10048000FF1FE458FF4FA591B491EC91ED2381E05B
:1004900090E009F480E0DF91CF91089580E090E052
:1004A000FACF1F93CF93DF93282F30E0F901E25565
:1004B000FF4F8491F901E656FF4FD491F901EA57B5
:1004C000FF4FC491CC23A9F0162F81110E94FF0188
:1004D000EC2FF0E0EE0FFF1FEE58FF4FA591B49107
:1004E0008FB7F894EC91111108C0D095DE23DC93FE
:1004F0008FBFDF91CF911F910895DE2BF8CFCF935F
:10050000DF9390E0FC01E656FF4F24918A579F4FFE
:10051000FC0184918823D1F090E0880F991FFC01A1
:10052000E859FF4FA591B491FC01EE58FF4FC591DA
:10053000D49161110EC09FB7F8948C91E22FE09591
:100540008E238C932881E223E8839FBFDF91CF9194
:1005500008958FB7F894EC91E22BEC938FBFF6CF10
:100560001F93CF93DF93182FEB0161E00E947F026E
:10057000209739F460E0812FDF91CF911F910C9487
:100580005102E12FF0E0E255FF4FE491E33039F101
:1005900048F4E130B9F0E230E9F0C038D10554F365
:1005A00061E0E9CFE73029F1E83059F1E430A9F70B
:1005B00080918000806280938000D0938B00C093F4
:1005C0008A0004C084B5806884BDC7BDDF91CF9127
:1005D0001F91089584B5806284BDC8BDF7CF809116
:1005E0008000806880938000D0938900C093880049
:1005F000EDCF8091B00080688093B000C093B300CD
:10060000E5CF8091B00080628093B000C093B400C9
:10061000DDCF3FB7F8948091540190915501A0919E
:100620005601B091570126B5A89B05C02F3F19F080
:100630000196A11DB11D3FBFBA2FA92F982F882762
:10064000BC01CD01620F711D811D911D42E0660F3D
:10065000771F881F991F4A95D1F708958F929F920F
:10066000AF92BF92CF92DF92EF92FF924B015C016B
:100670000E9409036B017C010E9409036C197D092A
:100680008E099F09683E734081059105A8F321E01A
:10069000821A9108A108B10888EEC80E83E0D81E1E
:1006A000E11CF11C81149104A104B10429F7FF900D
:1006B000EF90DF90CF90BF90AF909F908F90089574
:1006C0002FB7F894609150017091510180915201BF
:1006D000909153012FBF0895FC0101900020E9F78C
:1006E0003197AF01481B590BBC0180E691E00C9497
:1006F000F2008F929F92AF92BF920F931F93CF936E
:10070000DF93CDB7DEB7A1970FB6F894DEBF0FBE6B
:10071000CDBF19A2423008F44AE08E010F5D1F4F91
:10072000842E912CB12CA12CA50194010E94820849
:10073000E62FB901CA01EA30F4F4E05DD801EE9386
:100740008D01232B242B252B79F790E080E0109747
:1007500019F0CD010E946C03A1960FB6F894DEBF8C
:100760000FBECDBFDF91CF911F910F91BF90AF9082
:100770009F908F900895E95CE1CF1F920F920FB682
:100780000F9211242F933F934F935F936F937F9317
:100790008F939F93AF93BF93EF93FF9380E691E086
:1007A0000E947001FF91EF91BF91AF919F918F9146
:1007B0007F916F915F914F913F912F910F900FBE5D
:1007C0000F901F9018951F920F920FB60F92112441
:1007D0002F938F939F93EF93FF93E0917001F0918C
:1007E00071018081E0917601F091770182FD1BC05B
:1007F0009081809179018F5F8F7320917A018217A8
:1008000041F0E0917901F0E0E05AFE4F958F80933E
:100810007901FF91EF919F918F912F910F900FBED2
:100820000F901F9018958081F4CF1F920F920FB6F2
:100830000F9211242F933F938F939F93AF93BF9366
:100840008091500190915101A0915201B0915301BA
:1008500030914F0123E0230F2D3758F50196A11D4C
:10086000B11D20934F018093500190935101A093AB
:100870005201B09353018091540190915501A09180
:100880005601B09157010196A11DB11D80935401ED
:1008900090935501A0935601B0935701BF91AF912A
:1008A0009F918F913F912F910F900FBE0F901F90AE
:1008B000189526E8230F0296A11DB11DD2CF1F92D5
:1008C0000F920FB60F9211242F933F934F935F9384
:1008D0006F937F938F939F93AF93BF93CF93DF9348
:1008E000EF93FF9380914E01C0916702D0E087FFA4
:1008F00024C0109285001092840080914E018F5F79
:1009000080934E0180914E01082E000C990B8C179C
:100910009D0724F480914E018C30C4F180918400B5
:1009200090918500049680349C4908F47AC08091A7
:10093000840090918500049676C080914E01082E27
:10094000000C990B8C179D07C4F6E0914E018E2F79
:10095000EE0F990BFC01EE0FFF1FE80FF91FED5B87
:10096000FD4F808186FFC9CFE0914E018E2FEE0FA3
:10097000990BFC01EE0FFF1FE80FF91FED5BFD4F18
:10098000808160E08F730E945102B7CF2091840074
:1009900030918500E0914E018E2FEE0F990BFC01F6
:1009A000EE0FFF1FE80FF91FED5BFD4F8181928174
:1009B000820F931F9093890080938800E0914E01ED
:1009C0008E2FEE0F990BFC01EE0FFF1FE80FF91FA2
:1009D000ED5BFD4F808186FF11C0E0914E018E2FAF
:1009E000EE0F990BFC01EE0FFF1FE80FF91FED5BF7
:1009F000FD4F808161E08F730E945102FF91EF9162
:100A0000DF91CF91BF91AF919F918F917F916F9126
:100A10005F914F913F912F910F900FBE0F901F90BC
:100A2000189580E49CE990938900809388008FEF6B
:100A300080934E01E3CF109263011092620188EE21
:100A400093E0A0E0B0E08093640190936501A093EF
:100A50006601B09367018AE091E090936101809311
:100A6000600185EC90E090936D0180936C0184ECC3
:100A700090E090936F0180936E0180EC90E09093F2
:100A800071018093700181EC90E0909373018093E9
:100A9000720182EC90E0909375018093740186EC72
:100AA00090E09093770180937601109279011092F3
:100AB0007A0110927B0110927C0110920302109235
:100AC0000402109205021092060210920702109280
:100AD00008021092090210920A0210920B02109260
:100AE0000C0210920D0210920E0210920F02109240
:100AF0001002109211021092120210926C021092C7
:100B00006B0210926E0210926D021092700210929F
:100B10006F026EE070E090E080E00E94530A009760
:100B200029F190936C0280936B022DE030E03093BA
:100B30006E0220936D0220916F0230917002232B80
:100B400011F4FC0110828DE090E09093700280938C
:100B50006F0268E171E080916B0290916C020E94DB
:100B6000190B18C08FEF80936802089580916B0273
:100B700090916C02009711F00E94CA0910926C02C9
:100B800010926B021092700210926F0210926E021D
:100B900010926D02809167028C3020F791E0980FDF
:100BA000909367028093680290E0FC01EE0FFF1FB4
:100BB000E80FF91FED5BFD4F88EB9BE0928381838B
:100BC0000895789484B5826084BD84B5816084BDC5
:100BD00085B5826085BD85B5816085BD80916E00DB
:100BE000816080936E00109281008091810082600C
:100BF0008093810080918100816080938100809149
:100C000080008160809380008091B1008460809337
:100C1000B1008091B00081608093B00080917A0033
:100C2000846080937A0080917A00826080937A0059
:100C300080917A00816080937A0080917A00806848
:100C400080937A001092C10010923F0210924002ED
:100C500010924102109242021092FF011092000283
:100C600010920102109202020E9460036B017C014B
:100C70004B015C0128EB820E2BE0921EA11CB11CE3
:100C80000E9460036C157D058E059F0528F0861671
:100C90009706A806B906A0F768EE73E080E090E03A
:100CA0000E942E03E0917001F091710182E0808337
:100CB000E0916C01F0916D011082E0916E01F09174
:100CC0006F0180E1808310927801E0917401F091CE
:100CD000750186E08083E0917201F091730180815B
:100CE00080618083E0917201F0917301808188605E
:100CF0008083E0917201F09173018081806880832C
:100D0000E0917201F091730180818F7D808386E292
:100D100091E00E946C030E9460036B017C014B0117
:100D20005C013AE0830E911CA11CB11C0E9460037F
:100D30006C157D058E059F0528F086169706A8067A
:100D4000B906A0F781E08093130260E088E00E947A
:100D50007F02809168028C3008F051C061E089E028
:100D60000E947F0280916802282F30E0F901EE0F87
:100D7000FF1FE20FF31FED5BFD4F9081907C9960A8
:100D800090831092690210926A022CE0622F0E94F6
:100D90001C09829FB001112430E020E0AB01420F1A
:100DA000531FFA01EE0FFF1FE40FF51FED5BFD4F20
:100DB000908196FD16C02F5F3F4F2C30310571F7A3
:100DC00081110FC01092800082E080938100109208
:100DD000850010928400B19A80916F0082608093A8
:100DE0006F00E09168028E2F90E0FC01EE0FFF1F74
:100DF000E80FF91FED5BFD4F80818064808361E027
:100E000087E00E947F0261E086E00E947F0261E04D
:100E100085E00E947F0261E084E00E947F0261E041
:100E200082E00E947F0261E083E00E947F0264E62C
:100E300070E080E090E00E942E038FE090E00E943E
:100E40008D0068EE73E080E090E00E942E0380EA5F
:100E500090E00E948D0068EE73E080E090E00E94D8
:100E60002E038AE590E00E948D00C0E0D0E084EF80
:100E7000882E99249394A12CB12C0E946003672B97
:100E8000682B692B09F4BFC00E946003C0905C010D
:100E9000D0905D01E0905E01F0905F016C157D05E2
:100EA0008E059F0508F4F5C0C0905C01D0905D01EF
:100EB000E0905E01F0905F019B01AC012C193D09AF
:100EC0004E095F0969017A013AEFC316D104E104C2
:100ED000F10408F4A0C060935C0170935D018093FD
:100EE0005E0190935F0180920B0290920C02A0929F
:100EF0000D02B0920E0210920F0210921002109288
:100F00001102109212028091030290910402A091AA
:100F10000502B09106028093070290930802A09305
:100F20000902B0930A020E94600360930302709367
:100F3000040280930502909306020E9460036B01F5
:100F40007C0187E391E00E946C034AE061E070E07D
:100F500080E090E00E9479038EE391E00E946C03B0
:100F60004AE0C701B6010E94790380E491E00E9443
:100F70006C038091030290910402A0910502B0914C
:100F80000602A7019601281B390B4A0B5B0BCA010D
:100F9000B9014AE00E94790380E491E00E946C0369
:100FA0006091030270910402809105029091060203
:100FB000C0900702D0900802E0900902F0900A0267
:100FC0006C197D098E099F094AE00E94790382E429
:100FD00091E00E946C030E9460034AE00E94790342
:100FE00084E491E00E946C038BE491E00E946C0326
:100FF0000E946003609303027093040280930502D1
:101000009093060208C00E9460036230710581055A
:10101000910508F039CF88E00E9428026C01909376
:101020005B0180935A018AE00E9428027C01909320
:101030005901809358018DE00E94280261E0CA9412
:10104000CD2819F0019771F560E087E00E94510208
:1010500061E085E00E94510266EE70E086E00E9449
:10106000B00261E084E00E94510261E083E00E94EE
:10107000510262E870E082E00E94B002209709F419
:10108000FCCE0E945C01882309F4F7CE0E94000088
:10109000F4CE60935C0170935D0180935E01909348
:1010A0005F0102CFEA94EF2879F461E087E00E94C3
:1010B000510261E085E00E94510266EE70E086E038
:1010C0000E94B00260E0CECF60E087E00E94510253
:1010D00060E085E00E94510270E060E086E00E94DE
:1010E000B00260E084E00E94510260E083E00E9470
:1010F000510270E060E0BFCF80916B0290916C0272
:101100000C94CA09A1E21A2EAA1BBB1BFD010DC03B
:10111000AA1FBB1FEE1FFF1FA217B307E407F507A7
:1011200020F0A21BB30BE40BF50B661F771F881F83
:10113000991F1A9469F760957095809590959B0119
:10114000AC01BD01CF010895052E97FB1EF400945C
:101150000E94BB0857FD07D00E94820807FC03D0FD
:101160004EF40C94BB0850954095309521953F4F17
:101170004F4F5F4F089590958095709561957F4F83
:101180008F4F9F4F08950E940D09A59F900DB49F0A
:10119000900DA49F800D911D11240895B7FF0C940C
:1011A000C3080E94C308821B930B08952F923F929D
:1011B0004F925F926F927F928F929F92AF92BF9267
:1011C000CF92DF92EF92FF920F931F93CF93DF9313
:1011D000CDB7DEB7CA1BDB0B0FB6F894DEBF0FBE70
:1011E000CDBF09942A88398848885F846E847D84BD
:1011F0008C849B84AA84B984C884DF80EE80FD80BF
:101200000C811B81AA81B981CE0FD11D0FB6F89434
:10121000DEBF0FBECDBFED010895A29FB001B39F09
:10122000C001A39F700D811D1124911DB29F700DEF
:10123000811D1124911D0895991B79E004C0991F07
:10124000961708F0961B881F7A95C9F78095089520
:10125000EE0FFF1F0590F491E02D09940F931F935B
:10126000CF93DF938230910510F482E090E0E0911B
:101270007302F091740230E020E0B0E0A0E030971B
:1012800099F42115310509F44AC0281B390B243083
:101290003105D8F58A819B816115710589F1FB01C2
:1012A00093838283FE0111C04081518102811381A9
:1012B00048175907E0F04817590799F4109761F05B
:1012C00012960C93129713961C933296CF01DF91CE
:1012D000CF911F910F9108950093730210937402A0
:1012E000F4CF2115310551F04217530738F0A90109
:1012F000DB019A01BD01DF01F801C1CFEF01F9CF98
:101300009093740280937302CDCFFE01E20FF31F1E
:10131000819391932250310939832883D7CF20912B
:10132000710230917202232B41F42091020130911D
:1013300003013093720220937102209100013091D9
:1013400001012115310541F42DB73EB7409104014B
:1013500050910501241B350BE0917102F09172024E
:10136000E217F307A0F42E1B3F0B2817390778F07C
:10137000AC014E5F5F4F2417350748F04E0F5F1FDB
:101380005093720240937102819391939FCFF0E04A
:10139000E0E09CCFCF93DF930097E9F0FC01329718
:1013A00013821282A0917302B0917402ED0130E0B9
:1013B00020E01097A1F420813181820F931F2091AA
:1013C0007102309172022817390709F061C0F09359
:1013D0007202E0937102DF91CF910895EA01CE1776
:1013E000DF07E8F54A815B819E0141155105B1F7A0
:1013F000E901FB83EA8349915991C40FD51FEC178A
:10140000FD0761F4808191810296840F951FE901A7
:1014100099838883828193819B838A83F0E0E0E0D3
:1014200012968D919C9113970097B9F52D913C914F
:101430001197CD010296820F931F20917102309176
:1014400072022817390739F6309751F51092740255
:1014500010927302B0937202A0937102BCCFD38337
:10146000C28340815181840F951FC817D90761F449
:101470004E5F5F4F88819981480F591F5183408388
:101480008A819B81938382832115310509F0B0CF36
:10149000F0937402E09373029ECFFD01DC01C0CF94
:1014A00013821282D7CFB0E0A0E0E9E5FAE00C9415
:1014B000D8088C01009751F4CB010E942E098C01B1
:1014C000C801CDB7DEB7E0E10C94F408FC01E60FEB
:1014D000F71F9C0122503109E217F30708F49DC061
:1014E000D901CD91DC911197C617D70798F0C53077
:1014F000D10530F3CE0104978617970708F3C61B72
:10150000D70B2297C193D1936D937C93CF010E9407
:10151000CA09D6CF5B01AC1ABD0A4C018C0E9D1EC8
:10152000A0917302B0917402512C412CF12CE12C4A
:10153000109731F58091710290917202881599058A
:1015400009F05CC04616570608F058C080910001AB
:1015500090910101009741F48DB79EB7409104012D
:1015600050910501841B950BE817F90708F055C049
:10157000F0937202E0937102F90171836083A0CF4E
:101580008D919C91119712966C90129713967C9066
:101590001397A815B90559F56C0142E0C40ED11C8A
:1015A000CA14DB0420F1AC014A195B09DA01129676
:1015B000159780F06282738251834083D9016D93C5
:1015C0007C93E114F10471F0D7011396FC93EE9330
:1015D000129776CF22968C0F9D1FF90191838083FD
:1015E000F301EFCFF0937402E093730269CF4816D2
:1015F000590608F42C017D01D3019ACFCB010E943A
:101600002E097C01009749F0AE01B8010E94100B31
:10161000C8010E94CA09870153CF10E000E050CFF3
:10162000FB01DC0102C001900D9241505040D8F7FF
:101630000895FB01DC0101900D920020E1F708956F
:1016400010E0C2E6D0E004C0FE010E942809219605
:0A165000C336D107C9F7F894FFCFA5
:10165A00000075028000000000009201F2001F01E4
:10166A00DF0150012E01420156657273696F6E20C7
:10167A00302E322E3000564D4450565F317C315F49
:10168A00564D4450560A00564D4450455F003A3272
:0E169A003A007C005F564D445045000D0A009A
:107E0000112484B714BE81FFF0D085E080938100F7
:107E100082E08093C00088E18093C10086E0809377
:107E2000C20080E18093C4008EE0C9D0259A86E02C
:107E300020E33CEF91E0309385002093840096BBD3
:107E4000B09BFECF1D9AA8958150A9F7CC24DD24C4
:107E500088248394B5E0AB2EA1E19A2EF3E0BF2EE7
:107E6000A2D0813461F49FD0082FAFD0023811F036
:107E7000013811F484E001C083E08DD089C08234E0
:107E800011F484E103C0853419F485E0A6D080C0E4
:107E9000853579F488D0E82EFF2485D0082F10E0AE
:107EA000102F00270E291F29000F111F8ED06801E7
:107EB0006FC0863521F484E090D080E0DECF843638
:107EC00009F040C070D06FD0082F6DD080E0C81688
:107ED00080E7D80618F4F601B7BEE895C0E0D1E017
:107EE00062D089930C17E1F7F0E0CF16F0E7DF06D8
:107EF00018F0F601B7BEE89568D007B600FCFDCFD4
:107F0000A601A0E0B1E02C9130E011968C91119780
:107F100090E0982F8827822B932B1296FA010C0160
:107F200087BEE89511244E5F5F4FF1E0A038BF0790
:107F300051F7F601A7BEE89507B600FCFDCF97BE46
:107F4000E89526C08437B1F42ED02DD0F82E2BD052
:107F50003CD0F601EF2C8F010F5F1F4F84911BD097
:107F6000EA94F801C1F70894C11CD11CFA94CF0C13
:107F7000D11C0EC0853739F428D08EE10CD085E9AC
:107F80000AD08FE07ACF813511F488E018D01DD067
:107F900080E101D065CF982F8091C00085FFFCCF94
:107FA0009093C60008958091C00087FFFCCF809118
:107FB000C00084FD01C0A8958091C6000895E0E648
:107FC000F0E098E1908380830895EDDF803219F02E
:107FD00088E0F5DFFFCF84E1DECF1F93182FE3DFCA
:107FE0001150E9F7F2DF1F91089580E0E8DFEE27F6
:047FF000FF270994CA
:027FFE00040479
:0400000300007E007B
:00000001FF