:100000000C9462000C948A000C948A000C948A0070
:100010000C948A000C948A000C948A000C948A0038
:100020000C948A000C948A000C948A000C948A0028
:100030000C948A000C948A000C948A000C948A0018
:100040000C9458030C948A000C9426030C9400031F
:100050000C948A000C948A000C948A000C948A00F8
:100060000C948A000C948A000000000024002700F1
:100070002A0000000000250028002B0000000000DE
:1000800023002600290004040404040404040202DA
:100090000202020203030303030301020408102007
:1000A0004080010204081020010204081020000012
:1000B0000008000201000003040700000000000027
:1000C0000000E70311241FBECFEFD8E0DEBFCDBF95
:1000D00022E0A2E8B1E001C01D92A637B207E1F725
:1000E00011E0A0E0B1E0E8E6FFE002C005900D926B
:1000F000A238B107D9F710E0C2E6D0E004C02197DA
:10010000FE010E94A707C136D107C9F70E94260445
:100110000C94B2070C940000E1E9F1E0A089B189E8
:1001200082E08C93A485B5851C92A685B7858FEC5B
:100130008C93108EA489B58986E08C93A289B389AB
:100140008C9180618C93A289B3898C9188608C9307
:10015000A289B3898C9180688C930288F389E02D01
:1001600080818F7D80830895CF92DF92EF92FF92FE
:100170000F931F932FB7F894C0908D01D0908E01EC
:10018000E0908F01F09090012FBFDC01CB018C0D2E
:100190009D1DAE1DBF1D4FB7F89400918D011091AC
:1001A0008E0120918F01309190014FBF0C151D05DC
:1001B0002E053F0528F080179107A207B30758F7CF
:1001C0001F910F91FF90EF90DF90CF900895CF9205
:1001D000DF92EF92FF920F931F93CF93DF936C0107
:1001E0007A018B01C0E0D0E0CE15DF0581F0D801A7
:1001F0006D918D01D601ED91FC910190F081E02D82
:10020000C6010995892B11F02196EECF7E01C70119
:10021000DF91CF911F910F91FF90EF90DF90CF90E2
:100220000895089580E090E00895FC01538D448D79
:10023000252F30E0842F90E0821B930B541710F091
:10024000CF96089501970895FC01918D828D98179E
:1002500061F0828DDF01A80FB11D5D968C91928DAA
:100260009F5F9F73928F90E008958FEF9FEF0895A7
:10027000FC01918D828D981731F0828DE80FF11D70
:10028000858D90E008958FEF9FEF0895FC01918D8B
:10029000228D892F90E0805C9F4F821B91098F7384
:1002A0009927089581E991E00E94460121E0892B78
:1002B00009F420E0822F0895FC01848DDF01A80F4E
:1002C000B11DA35ABF4F2C91848D90E001968F737E
:1002D0009927848FA689B7892C93A089B1898C919D
:1002E000837080648C93938D848D981306C00288EC
:1002F000F389E02D80818F7D80830895EF92FF92B6
:100300000F931F93CF93DF93EC0181E0888F9B8D38
:100310008C8D981305C0E889F989808185FD26C0F8
:10032000F62E0B8D10E00F5F1F4F0F731127E02E7D
:100330008C8DE8120CC00FB607FCFACFE889F9895A
:10034000808185FFF5CFCE010E945C01F1CF8B8DBE
:10035000FE01E80FF11DE35AFF4FF0829FB7F894BA
:100360000B8FEA89FB89808180620AC09FB7F8946D
:10037000EE89FF896083E889F989808183708064D0
:1003800080839FBF81E090E0DF91CF911F910F911B
:10039000FF90EF900895CF93DF93EC01888D882331
:1003A000C9F0EA89FB89808185FD05C0A889B989E2
:1003B0008C9186FD0FC00FB607FCF5CF808185FFBD
:1003C000F2CFA889B9898C9185FFEDCFCE010E942B
:1003D0005C01E7CFDF91CF91089580E090E0892B19
:1003E00029F00E94520181110C940000089583307D
:1003F00081F028F4813099F08230A1F0089587309F
:10040000A9F08830B9F08430D1F4809180008F7DDC
:1004100003C0809180008F7780938000089584B519
:100420008F7702C084B58F7D84BD08958091B00020
:100430008F7703C08091B0008F7D8093B0000895C6
:100440001F93CF93DF93282F30E0F901E255FF4F40
:100450008491F901E656FF4FD491F901EA57FF4F15
:10046000C491CC23C1F0162F81110E94F701EC2F0B
:10047000F0E0EE0FFF1FEE58FF4FA591B4919FB72C
:10048000F894111104C08C91D095D82302C0EC913E
:10049000DE2BDC939FBFDF91CF911F910895CF9307
:1004A000DF9390E0FC01E656FF4F2491FC01EA57F0
:1004B000FF4F8491882361F190E0880F991FFC0120
:1004C000E859FF4FC591D491FC01EE58FF4FA5911B
:1004D000B491611109C09FB7F89488812095822357
:1004E0008883EC912E230BC0623061F49FB7F8949F
:1004F0008881322F309583238883EC912E2B2C9387
:100500009FBF06C08FB7F894E8812E2B28838FBF3A
:10051000DF91CF9108953FB7F89480918301909136
:100520008401A0918501B091860126B5A89B05C0E4
:100530002F3F19F00196A11DB11D3FBFBA2FA92F62
:10054000982F8827820F911DA11DB11DBC01CD01DF
:1005500042E0660F771F881F991F4A95D1F70895CB
:100560008F929F92AF92BF92CF92DF92EF92FF92C3
:100570000E948B024B015C0184E6C82ED12CE12C39
:10058000F12C0E948B02DC01CB0188199909AA0980
:10059000BB09883E9340A105B10598F321E0C21A3A
:1005A000D108E108F10888EE880E83E0981EA11CAE
:1005B000B11CC114D104E104F10419F7FF90EF90CC
:1005C000DF90CF90BF90AF909F908F9008950E9442
:1005D000AD076115710579F0FB0101900020E9F785
:1005E0003197AF01461B570BDC01ED91FC91028066
:1005F000F381E02D099480E090E008950C94E902E5
:100600001F920F920FB60F9211242F933F934F9387
:100610005F936F937F938F939F93AF93BF93EF936A
:10062000FF9381E991E00E945C01FF91EF91BF91FE
:10063000AF919F918F917F916F915F914F913F917A
:100640002F910F900FBE0F901F9018951F920F9231
:100650000FB60F9211242F938F939F93EF93FF93D5
:10066000E091A101F091A2018081E091A701F091B8
:10067000A80182FD12C090818091AA018F5F8F73C3
:100680002091AB01821751F0E091AA01F0E0EF5602
:10069000FE4F958F8093AA0101C08081FF91EF9159
:1006A0009F918F912F910F900FBE0F901F901895D3
:1006B0001F920F920FB60F9211242F933F938F9397
:1006C0009F93AF93BF9380918D0190918E01A091E4
:1006D0008F01B09190013091820123E0230F2D37DB
:1006E00020F40196A11DB11D05C026E8230F029636
:1006F000A11DB11D2093820180938D0190938E01E5
:10070000A0938F01B0939001809183019091840117
:10071000A0918501B09186010196A11DB11D809324
:10072000830190938401A0938501B0938601BF91CA
:10073000AF919F918F913F912F910F900FBE0F908E
:100740001F901895CF92DF92EF92FF920F931F9315
:10075000E82FF92F05C0015011092109310961F174
:10076000908196239417B9F305C00150110921090E
:10077000310911F1908196239413F7CFC12CD12C1C
:10078000E12CF12C0AC08FEFC81AD80AE80AF80A3F
:100790000C151D052E053F0579F0808186238417F1
:1007A00091F36C2D7D2D8E2D9F2D1F910F91FF901C
:1007B000EF90DF90CF90089560E070E080E090E0EF
:1007C0001F910F91FF90EF90DF90CF900895E1E996
:1007D000F1E01382128288EE93E0A0E0B0E084831F
:1007E0009583A683B78384E091E09183808385EC31
:1007F00090E09587848784EC90E09787868780ECEB
:1008000090E0918B808B81EC90E0938B828B82ECDB
:1008100090E0958B848B86EC90E0978B868B118E85
:10082000128E138E148EEEE2F2E01682178210867C
:100830001186128613861486158616861786108AE8
:10084000118A128A138A148A158A0895CF93DF9326
:10085000CDB7DEB7A1970FB6F894DEBF0FBECDBF00
:10086000789484B5826084BD84B5816084BD85B58B
:10087000826085BD85B5816085BD80916E00816097
:1008800080936E001092810080918100826080933D
:10089000810080918100816080938100809180003F
:1008A0008160809380008091B10084608093B1006A
:1008B0008091B00081608093B00080917A00846064
:1008C00080937A0080917A00826080937A00809190
:1008D0007A00816080937A0080917A0080688093AA
:1008E0007A001092C100109272021092730210925C
:1008F000740210927502109230021092310210921E
:1009000032021092330268EB7BE080E090E00E94BC
:10091000B40081E991E090937102809370020E948B
:100920008C002FB7F89480918D0190918E01A09149
:100930008F01B09190012FBF8093300290933102CC
:10094000A0933202B093330262E171E080917002B1
:10095000909171020E94FE026AE070E080E090E0F7
:100960000E94B40081E0809344020E948C0061E008
:1009700088E00E944F0260E089E00E944F0211E08F
:1009800061E0812F0E944F021F5F1730C9F761E0BD
:1009900083E00E944F0261E082E00E944F0261E02A
:1009A00083E00E944F0261E084E00E944F0261E018
:1009B00085E00E944F0261E086E00E944F0261E004
:1009C00087E00E944F0260E08BE00E944F0261E0EE
:1009D0008CE00E944F0223E0E22EF12C33E2C32E82
:1009E000D12C4AE0842E912CA12CB12C59EB252E30
:1009F00050E0352E60E088E00E942002C701019798
:100A0000F1F761E088E00E942002C6010197F1F74A
:100A100060E088E00E942002E3EAF0E06491EFE801
:100A2000F0E08491E82FF0E0EE0FFF1FE458FF4F55
:100A30008591949100E412E42FE030E0462F0E946B
:100A4000A203611571058105910549F0DC01CB0117
:100A50000196A11DB11DBC01CD019F7003C060E0D6
:100A600070E0CB010E94560626E933E44BE05DE3DB
:100A70000E94910620E030E040E05FE30E94910692
:100A80000E94710770938801609387016DE271E0A5
:100A900081E991E00E94FE0264E271E081E991E067
:100AA0000E94FE024090870150908801052C000CA6
:100AB0006608770877FE20C06DE281E991E00E9428
:100AC0007E0122273327A901241935094609570930
:100AD00019A2CE0181963C01CA01B901A501940178
:100AE0000E944F07605DF30162933F0121153105BC
:100AF0004105510589F715C0A301920119A2CE0144
:100B000081963C01CA01B901A50194010E944F07D9
:100B1000605DF30162933F012115310541055105E7
:100B200089F7B30181E991E00E94E90261E271E095
:100B300081E991E00E94E90280E480937C00809149
:100B40007A00806480937A0080917A0086FDFCCFE1
:100B5000809178002091790090E0922B90938A0107
:100B60008093890183589109489780F461E08CE073
:100B70000E9420026DE271E081E991E00E94FE0294
:100B80006FE271E081E991E00E94FE0280918901AB
:100B900090918A018C599109489780F461E08CE02A
:100BA0000E9420026DE271E081E991E00E94FE0264
:100BB00060E471E081E991E00E94FE028091890188
:100BC00090918A01855B9109879780F461E08CE0C0
:100BD0000E9420026DE271E081E991E00E94FE0234
:100BE00068E571E081E991E00E94FE02809189014F
:100BF00090918A018D3D91058CF061E08CE00E941E
:100C000020026DE271E081E991E00E94FE026AE655
:100C100071E081E991E00E94FE0204C060E08CE096
:100C20000E9420020E94B002F1018491E5EAF0E006
:100C30007490E1E9F0E064906620A1F081110E94D7
:100C4000F701E62DF0E0EE0FFF1FE458FF4FA591EE
:100C5000B4918C91782231E020E009F430E0832FC8
:100C6000922F02C080E090E090938C0180938B01E2
:100C7000019749F460E08CE00E9420020E94B002DB
:100C80000E94ED01B7CE61E08CE00E9420026DE28F
:100C900071E081E991E00E94FE0269E771E081E97B
:100CA00091E00E94FE02EACFE89409C097FB3EF46F
:100CB00090958095709561957F4F8F4F9F4F9923A9
:100CC000A9F0F92F96E9BB279395F6958795779527
:100CD0006795B795F111F8CFFAF4BB0F11F460FFE7
:100CE0001BC06F5F7F4F8F4F9F4F16C0882311F03F
:100CF00096E911C0772321F09EE8872F762F05C053
:100D0000662371F096E8862F70E060E02AF09A95ED
:100D1000660F771F881FDAF7880F9695879597F9E2
:100D200008950E94A4060C9415070E94070738F046
:100D30000E940E0720F0952311F00C94FE060C94EF
:100D4000040711240C9449070E94260770F3959F0D
:100D5000C1F3950F50E0551F629FF001729FBB27B2
:100D6000F00DB11D639FAA27F00DB11DAA1F649F4E
:100D70006627B00DA11D661F829F2227B00DA11D01
:100D8000621F739FB00DA11D621F839FA00D611D87
:100D9000221F749F3327A00D611D231F849F600DA8
:100DA000211D822F762F6A2F11249F5750409AF0D1
:100DB000F1F088234AF0EE0FFF1FBB1F661F771F5D
:100DC000881F91505040A9F79E3F510580F00C9428
:100DD000FE060C9449075F3FE4F3983ED4F38695F2
:100DE00077956795B795F795E7959F5FC1F7FE2BC8
:100DF000880F911D9695879597F9089597F99F67A4
:100E000080E870E060E008959FEF80EC0895002492
:100E10000A941616170618060906089500240A945F
:100E200012161306140605060895092E0394000CE5
:100E300011F4882352F0BB0F40F4BF2B11F460FF74
:100E400004C06F5F7F4F8F4F9F4F089557FD90589D
:100E5000440F551F59F05F3F71F04795880F97FB7E
:100E6000991F61F09F3F79F0879508951216130638
:100E70001406551FF2CF4695F1DF08C01616170667
:100E80001806991FF1CF869571056105089408959C
:100E9000E894BB2766277727CB0197F90895A1E24D
:100EA0001A2EAA1BBB1BFD010DC0AA1FBB1FEE1FE4
:100EB000FF1FA217B307E407F50720F0A21BB30B2F
:100EC000E40BF50B661F771F881F991F1A9469F7AB
:100ED00060957095809590959B01AC01BD01CF0107
:100EE00008950E9478076894B1110C9449070895F9
:100EF0000E942E0788F09F5798F0B92F9927B75175
:100F0000B0F0E1F0660F771F881F991F1AF0BA95AD
:100F1000C9F714C0B13091F00E944807B1E00895BC
:100F20000C944807672F782F8827B85F39F0B93FAE
:100F3000CCF3869577956795B395D9F73EF4909560
:100F40008095709561957F4F8F4F9F4F0895EE0F5D
:100F5000FF1F0590F491E02D099481E090E0F89452
:080F60000C94B207F894FFCFD6
:100F6800000000007E01E7001501CB0146012401C5
:100F78003801564D4450565F317C315F564D4450D0
:100F8800560D0A0044697374616E63653A20005314
:100F98006F6D6520536D6F6B6520284C6F77290046
:100FA8004D6F64657261746520536D6F6B652028A1
:100FB8004D656469756D29004D6F726520536D6FBD
:100FC8006B6520284869676829004669726520288A
:100FD80045787472656D6529004261726B696E6748
:020FE800000007
:00000001FF
