:1000000064C3000093C3000091C300008FC30000CD
:100010008DC300008BC3000089C3000087C30000AC
:1000200085C3000083C3000081C300007FC30000BC
:100030007DC300007BC3000079C3000077C30000CC
:1000400075C300000C94291C71C300006FC300002D
:100050006DC300006BC3000069C300000C94551B06
:1000600065C300000C941F1B0C94F51A5FC30000BD
:100070005DC300005BC3000059C3000057C300000C
:100080000C94FB1B53C3000051C300004FC300007E
:100090000C94BF1A0C94951A49C3000047C3000082
:1000A00045C3000043C300000C94CD1B3FC30000B8
:1000B0003DC300003BC3000039C300000C949F1BEC
:1000C00035C3000033C3000031C300002FC300005C
:1000D0002DC300002BC3000029C3000027C300006C
:1000E00025C300005D2000427566666572206F764C
:1000F0006572666C6F770041542B434950434C4FF7
:1001000053453D00626C6E6B696E660076657200E9
:10011000302E362E3100682D62656174003130005A
:10012000627566662D696E00313032340064657622
:100130000041726475696E6F204D65676100637080
:10014000750041546D6567613235363000636F6EFE
:100150000045535038323636006275696C6400448D
:10016000656320203520323031392032333A343142
:100170003A353200000000002100240027002A0048
:100180002D003000330001010000040107010A01C5
:1001900000002200250028002B002E003100340032
:1001A00002010000050108010B0141542B4349469F
:1001B00053520041542B43574D4F44453D00415449
:1001C0002B43574D4F44453F0041542B4349504D1D
:1001D00055583D0041542B474D5200415445004174
:1001E00054004661696C656420746F20636F6E6EA5
:1001F000656374205769466900436F6E6E6563746A
:10020000656420746F2057694669004661696C65B2
:100210006420746F2073657420535441206D6F64A3
:1002200065004661696C656420746F20656E61626B
:100230006C65204D5558004661696C656420746F8B
:100240002064697361626C65204563686F00455383
:1002500050206973206E6F7420726573706F6E64C6
:10026000696E6700436F6E6E656374696E672074B4
:100270006F20000D0A202020205F5F5F20205F5F3D
:10028000202020202020202020205F5F0D0A202019
:10029000202F205F20292F202F5F205F5F5F5F5F6F
:1002A00020202F202F5F5F0D0A20202F205F20208D
:1002B0002F202F202F2F202F205F205C2F20202762
:1002C0005F2F0D0A202F5F5F5F5F2F5F2F5C5F2C1A
:1002D000202F5F2F2F5F2F5F2F5C5F5C0D0A202088
:1002E0002020202020202F5F5F5F2F2076302E36A9
:1002F0002E31206F6E2041726475696E6F204D65DE
:1003000067610D0A002C0041542B43495053454E60
:10031000443D006D73292E00526561647920287078
:10032000696E673A200000002000230026002900A3
:100330002C002F003200000100000301060109011A
:1003400005050505070508080808020202020A0A51
:10035000080804040404010101010101010103036F
:10036000030303030303040707070C0C0C0C0C0C1A
:100370000C0C0202020206060606060606060B0B17
:100380000B0B0B0B0B0B0102102020080810204058
:100390001020408002010201080402010102040849
:1003A00010204080804020100804020180040201D7
:1003B0008040201008040201080402010102040820
:1003C00010204080010204081020408000000A0B29
:1003D00002090C0D0E0807030401000000000000D4
:1003E000000000000000000000000000000000000D
:1003F00000000000000000001211100000000000CA
:1004000000000000000000000000000000000000EC
:100410000000DD03DD03DD03DD03DD03DD03DD03BC
:10042000DD03DD03DD03DD03DD03DD03DD03DD03CC
:10043000DD03DD03DD03DD03DD03DD03DD03DD03BC
:10044000DD03DD03DD03DD03DD03DD03DD03DD03AC
:10045000DD03DD03DD03DD03DD03DD03DD03DD039C
:10046000DD03DD03DD03DD03DD03DD03DD03DD038C
:10047000DD03DD03DD03DD03DD03DD03DD03DD037C
:10048000DD03DD03DD03DD03DD03DD03DD03DD036C
:10049000DD03DD03DD03DD03DD03DD03DD03DD035C
:1004A000DD03DD03DD03DD03DD03DD03DD03DD034C
:1004B000DD03DD03DD03DD03DD03DD03DD03DD033C
:1004C000DD03DD03DD03DD03DD03DD03DD03DD032C
:1004D000DD03DD03DD03DD03DD03DD03DD03DD031C
:1004E000DD03DD03DD03DD03DD03DD03DD03DD030C
:1004F000DD03DD03DD03DD03DD03DD03DD03DD03FC
:10050000DD03DD03DD03DD03DD03DD03DD03DD03EB
:10051000DD03DC03DC03DC03DC03DC03DC03F509C3
:10052000DC03DC03DB03DC03DC03DC03DC03DC03D4
:10053000DC03DC03DC03DC03DC03DC03DC03DC03C3
:10054000DC03DC03DC03DC03DC03DC03DC03DC03B3
:10055000DC03DC03DC03DC03DC03DC03DC03DC03A3
:10056000DC03DC03DC03DC03DC03DC03DC03DC0393
:10057000DC03DC03DC03DC03DC03DC03DC03DC0383
:10058000DC03DC03DC03DC03DC03DC03DC03DC0373
:10059000DC03DC03DC03DC03DC03DC03DC03DC0363
:1005A000DC03DC03DC03DC03DC03DC03DC03DC0353
:1005B000DC03DC03DC03DC03DC03DC03DC03DC0343
:1005C000DC03DC03DC03DC03DC03DC03DC03DC0333
:1005D000DC03DC03DC03DC03DC03DC03DC03DC0323
:1005E000DC03DC03DC03DC03DC03DC03DC03DC0313
:1005F000DC03DC03DC03DC03DC03DC03DC03DC0303
:10060000DC03DC03DC03DC03DC03DC03DC03DC03F2
:10061000DC03496E76616C696420485720636D6421
:100620003A20005365727665723A2000526564691B
:1006300072656374696E6720746F2000526561642F
:1006400079005061636B657420746F6F2062696715
:100650003A2000436F6E6E656374206661696C6555
:10066000642E20636F64653A2000496E76616C6980
:1006700064206175746820746F6B656E004C6F67E1
:10068000696E2074696D656F757400486561727478
:10069000626561742074696D656F75740022002253
:1006A0002C220041542B43574A41503D2200222C1A
:1006B00000222C22002C220041542B434950535439
:1006C0004152543D00009C1C202611241FBECFEF38
:1006D000D1E2DEBFCDBF00E00CBF13E0A0E0B2E08E
:1006E000E4E6F5E500E00BBF02C007900D92A031F3
:1006F000B107D9F727E0A0E1B3E001C01D92AD3A00
:10070000B207E1F713E0C4E6D3E000E006C02197AA
:100710000109802FFE010E947029C336D10780E0B5
:100720000807A9F70E94BD1D0C94A12A69CCCF939C
:10073000DF93EC019A01AB01E889F98982E08083BB
:10074000211581EE38074105510581F160E079E01E
:100750008DE390E00E94D6282150310941095109CA
:100760005695479537952795EC85FD851082EE8542
:10077000FF852083188EEC89FD8986E08083EA89D5
:10078000FB89808180618083EA89FB898081886020
:100790008083EA89FB89808180688083EA89FB897C
:1007A00080818F7D8083DF91CF910895E889F989D9
:1007B000108220E1D9CF0895089508958F929F92D5
:1007C000AF92BF92FF920F931F93CF93DF93F0905E
:1007D00095042FE22F1508F44CC02091970408E5EA
:1007E00012E0021B110927FD1395000F111F000FC6
:1007F000111F20919604C8E8D0E0C21BD10927FD43
:10080000D395CC0FDD1FCC0FDD1F4E010D2E000C3C
:10081000AA08BB089801012E000C440B550B28199F
:1008200039094A095B09DC010E941E2924EB30E0EA
:1008300040E050E00E94F828820E931EA41EB51ED0
:100840008C169D062CF0E801801691060CF4E4014C
:100850002297CC0FDD1F2FB7F8948F2D90E0FC016D
:10086000EE0FFF1FE80FF91FEC5FFB4FD283C18330
:100870002FBFDF91CF911F910F91FF90BF90AF904D
:100880009F908F9008950895DB0114964D915C918F
:1008900015976D917C91DC01ED91FC910280F381C3
:1008A000E02D1994EF92FF920F931F93CF93DF9354
:1008B0008C017B01D0E0C0E0F701EC0FFD1F6491DB
:1008C000662361F0D801ED91FC910190F081E02D5B
:1008D000C8011995892B11F02196EECFCE01DF9139
:1008E000CF911F910F91FF90EF900895AF92BF921B
:1008F000CF92DF92EF92FF920F931F93CF93DF93EC
:100900006C017B018B01040F151FEB015E01AE181A
:10091000BF08C017D10759F06991D601ED91FC913C
:100920000190F081E02DC6011995892B79F7C50159
:10093000DF91CF911F910F91FF90EF90DF90CF90BB
:10094000BF90AF900895FC01538D448D252F30E06A
:10095000842F90E0821B930B541710F0CF960895CC
:1009600001970895FC01918D828D981761F0A28DF9
:10097000AE0FBF2FB11D5D968C91928D9F5F9F73BF
:10098000928F90E008958FEF9FEF0895FC01918D75
:10099000828D981731F0828DE80FF11D858D90E0E2
:1009A00008958FEF9FEF0895FC01918D228D892F7F
:1009B00090E0805C9F4F821B91098F739927089567
:1009C0008AED95E0F1DF21E0892B09F420E0822F08
:1009D000089581E293E0E8DF21E0892B09F420E02B
:1009E000822F0895FC01A48DA80FB92FB11DA35A21
:1009F000BF4F2C91848D90E001968F739927848F3F
:100A0000A689B7892C93A089B1898C918370806461
:100A10008C93938D848D981306C00288F389E02D02
:100A200080818F7D80830895EF92FF920F931F93B3
:100A3000CF93DF93EC0181E0888F9B8D8C8D981391
:100A40001AC0E889F989808185FF15C09FB7F8949D
:100A5000EE89FF896083E889F989808183708064E9
:100A600080839FBF81E090E0DF91CF911F910F9134
:100A7000FF90EF900895F62E0B8D10E00F5F1F4F43
:100A80000F731127E02E8C8D8E110BC00FB607FC53
:100A9000FACFE889F989808185FFF5CFCE01A2DF01
:100AA000F2CFEB8DEC0FFD2FF11DE35AFF4FF082DB
:100AB0009FB7F8940B8FEA89FB8980818062D0CF41
:100AC000CF93DF93EC01888D8823B1F0AA89BB898D
:100AD000E889F9898C9185FD03C0808186FD0CC071
:100AE0000FB607FCF7CF8C9185FFF2CF808185FF91
:100AF000EDCFCE0177DFEACFDF91CF91089580E08F
:100B000090E0892B21F065DF81110E94000080E0D8
:100B100090E0892B21F054DF81110E94000080E0D9
:100B200090E0892B49F080E090E0892B29F00E9429
:100B3000000081110E94000080E090E0892B49F0C4
:100B400080E090E0892B29F00E94000081110C9434
:100B5000000008958150823108F05AC0E82FF0E07B
:100B60008827EA54FA4F8F4F0C947029D605DA057E
:100B7000C805CE05D2050806DD05E305E705ED0548
:100B8000F105F505FB05FF050806030609060D0638
:100B9000809180008F7780938000089580918000FD
:100BA0008F7DF9CF80918000877FF5CF84B58F77D7
:100BB00084BD089584B58F7DFBCF8091B0008F7781
:100BC0008093B00008958091B0008F7DF9CF80911F
:100BD00090008F77809390000895809190008F7D92
:100BE000F9CF80919000877FF5CF8091A0008F771B
:100BF0008093A00008958091A0008F7DF9CF80910F
:100C0000A000877FF5CF809120018F77809320010E
:100C10000895809120018F7DF9CF80912001877FF9
:100C2000F5CF1F93CF93DF93282F30E0F901E453E2
:100C3000FC4F8491F901EA57FC4FD491F901E05C33
:100C4000FC4FC491CC23A1F0162F811183DFEC2F30
:100C5000F0E0EE0FFF1FE057FE4FA591B4918FB764
:100C6000F894EC91111108C0D095DE23DC938FBF6E
:100C7000DF91CF911F910895DE2BF8CFCF93DF93B3
:100C800090E0FC01EA57FC4F2491805C9C4FFC01F2
:100C900084918823C9F090E0880F991FFC01EA58DD
:100CA000FE4FA591B491FC01E057FE4FC591D49140
:100CB00061110DC09FB7F8948C91209582238C937D
:100CC0008881282328839FBFDF91CF9108956230C8
:100CD00051F49FB7F8943C91822F809583238C9395
:100CE000E8812E2BEFCF8FB7F894EC912E2B2C931D
:100CF0008FBFEACF1F93CF93DF93182FEB0161E0F3
:100D0000BDDF209731F460E0812FDF91CF911F91FB
:100D100088CFCF3FD10511F461E0F6CFE12FF0E0AD
:100D2000E453FC4FE491E150E23108F0B3C0F0E04D
:100D30008827E256F94F8F4F0C947029B006B806F9
:100D4000BD06C706D1064A07DB06E306EB06F50635
:100D5000FF060907180722074A072C07360740072E
:100D600084B5806884BDC7BDDF91CF911F91089580
:100D700084B5806284BDC8BDF7CF80918000806853
:100D800080938000D0938900C0938800EDCF80913C
:100D90008000806280938000D0938B00C0938A0093
:100DA000E3CF80918000886080938000D0938D0095
:100DB000C0938C00D9CF8091B00080688093B00040
:100DC000C093B300D1CF8091B00080628093B00017
:100DD000C093B400C9CF8091900080688093900048
:100DE000D0939900C0939800BFCF8091900080620B
:100DF00080939000D0939B00C0939A00B5CF8091D0
:100E00009000886080939000D0939D00C0939C00D8
:100E1000ABCF8091A00080688093A0008091A0005B
:100E20008F7B8093A000D093A900C093A8009CCF93
:100E30008091A00080628093A000D093AB00C0930B
:100E4000AA0092CF8091A00088608093A000D093E8
:100E5000AD00C093AC0088CF809120018068809362
:100E60002001D0932901C09328017ECF80912001D9
:100E7000806280932001D0932B01C0932A0174CF0C
:100E800080912001886080932001D0932D01C09330
:100E90002C016ACFC038D1050CF03ECF34CF3FB71C
:100EA000F8948091190390911A03A0911B03B091BB
:100EB0001C0326B5A89B05C02F3F19F00196A11D64
:100EC000B11D3FBFBA2FA92F982F8827BC01CD0194
:100ED000620F711D811D911D42E0660F771F881FF3
:100EE000991F4A95D1F708958F929F92AF92BF9222
:100EF000CF92DF92EF92FF926B017C01D0DF4B012A
:100F00005C01C114D104E104F104B1F0C8DF681937
:100F100079098A099B09683E73408105910588F328
:100F200021E0C21AD108E108F10888EE880E83E0BA
:100F3000981EA11CB11CE5CFFF90EF90DF90CF90E1
:100F4000BF90AF909F908F9008952FB7F8946091C5
:100F500015037091160380911703909118032FBF0A
:100F60000895AF92BF92CF92DF92EF92FF920F93CC
:100F70001F93CF93DF936B017A01EC01C05FDC4FCD
:100F800028813CE0389F8001399F100D1124A090EA
:100F90009404B12C27FF1FC0FB01118210828881AD
:100FA0008F5F888388819801280F311D87FD3A95CE
:100FB000F6012A153B051CF488818C30BCF1808138
:100FC0009181049680349C4908F471C0F6018081B7
:100FD000918104966EC088819801280F311D87FD8C
:100FE0003A952A153B05DCF68881A801480F511D6A
:100FF00087FD5A95FA01EE0FFF1FE40FF51FEC5F16
:10100000FB4F808186FFCBCF8881F801E80FF11D6F
:1010100087FDFA95CF01EE0FFF1FE80FF91FEC5F78
:10102000FB4F808160E08F73FCDDB9CF80819181BF
:101030002881A801420F511D27FD5A959A01FA01F6
:10104000EE0FFF1FE20FF31FEC5FFB4F2181328198
:10105000820F931FF7019183808388819801280F65
:10106000311D87FD3A95F901EE0FFF1FE20FF31FC7
:10107000EC5FFB4F808186FF21C08881080F111D26
:1010800087FD1A95F801EE0FFF1FE00FF11FEC5FCF
:10109000FB4F808161E08F73DF91CF911F910F91A2
:1010A000FF90EF90DF90CF90BF90AF90BACD80E4EB
:1010B0009CE9F701918380838FEF8883DF91CF9143
:1010C0001F910F91FF90EF90DF90CF90BF90AF9066
:1010D0000895FB0101900020E9F73197AF01461B0D
:1010E000570BDC01ED91FC910280F381E02D199406
:1010F0008F929F92AF92BF92EF92FF920F931F93A6
:10110000CF93DF93CDB7DEB7A1970FB6F894DEBFCC
:101110000FBECDBF7C01FA01CB0119A2223008F429
:101120002AE08E010F5D1F4F822E912CB12CA12C35
:10113000BF01A50194010E94D628F901CA016A30B5
:1011400004F5605DD8016E938D01232B242B252B94
:1011500079F790E080E0109719F0BD01C701B9DF81
:10116000A1960FB6F894DEBF0FBECDBFDF91CF9131
:101170001F910F91FF90EF90BF90AF909F908F9035
:101180000895695CDFCF0F931F93CF93DF93EC013A
:10119000462F50E070E060E02AE0AADF8C016EED9F
:1011A00072E0CE0196DF800F911FDF91CF911F91EA
:1011B0000F9108956BE581E293E036DCC6DEAB016A
:1011C000BC012AE081E293E093DF64EE70E081E20B
:1011D00093E068CBCF93DF93BC0181E293E079DFAA
:1011E000EC016EED72E081E293E073DF8C0F9D1FE6
:1011F000DF91CF910895CF93DF93AC0170E060E071
:101200002AE081E293E074DFEC016EED72E081E2AE
:1012100093E05FDF8C0F9D1FDF91CF9108950F93B7
:101220001F93CF93DF93EC013DDB8C016EED72E0F9
:10123000CE014FDF800F911FDF91CF911F910F9152
:1012400008958F929F92AF92BF92EF92FF920F9369
:101250001F93CF93DF934A015B01E901813009F0CD
:1012600066C079018BEFE81A8EEFF80AD7018D91ED
:101270009C9189010D5F1E4FF80120813181821BF5
:10128000930B181619060CF093950197092E000C74
:10129000AA0BBB0B88159905AA05BB0580F48ADF4C
:1012A00067EE70E081E293E0DF91CF911F910F91A3
:1012B000FF90EF90BF90AF909F908F90B0CF811430
:1012C0009104A104B10499F1E881F98180819181AF
:1012D000DC01ED91FC910084F185E02D1995892BBD
:1012E00071F3E881F98180819181DC01ED91FC91BC
:1012F0000284F385E02D1995F801408151819A010E
:101300002F5F3F4F3327D7016D917C912617370709
:10131000D1F34C0F5D1FFA018383D80111963C93E2
:101320002E93B1E08B1A9108A108B108C8CFDF91C4
:10133000CF911F910F91FF90EF90BF90AF909F9032
:101340008F900895DC01ED91FC911197309761F039
:1013500012962D913C911397E217F30728F4019010
:101360000020E9F7ED93FC9308950F931F93CF931B
:10137000DF9300D01F92CDB7DEB7FC012081318111
:1013800002811381020F131F3A8329831C830B836D
:1013900089819A8180179107A8F4672B69F4698184
:1013A0007A818B819C810F900F900F900F90DF912D
:1013B000CF911F910F910895CE010196C3DF70E088
:1013C00060E0E6CF60E070E0CB01EDCFFC01808112
:1013D0009181009739F0228133818217930710F4AD
:1013E0000C94492790E080E00895EF92FF920F93CC
:1013F0001F93CF93DF9300D01F92CDB7DEB78B0141
:1014000081E090E0909301028093000261E070E03F
:10141000C801ABDF69837A838B839C83CE010196FD
:10142000D5DF7C0170E060E0C8019FDF69837A83CB
:101430008B839C83CE010196C9DF8C018FEEE81669
:1014400082E0F8060CF45FC01092010210920002D4
:1014500061E080E1E6DB61E085E0E3DB68E572E026
:1014600080E048DC61E084E0DCDB61E08EE0D9DB39
:101470006FE872E082E03EDC0A3F11050CF10F3E9E
:101480001240F4F080910002909101020197C1F4A2
:10149000109201021092000261E080E1C2DB61E083
:1014A00085E0BFDB6CE271E080E024DC60E084E09A
:1014B000B8DB61E08EE0B5DB6CE271E082E01ADC63
:1014C000E11482E0F80609F051C060E080E1A9DB98
:1014D00060E085E0A6DB70E060E080E00BDC60E0CF
:1014E00084E09FDB60E08EE09CDB70E060E082E007
:1014F0000F900F900F900F90DF91CF911F910F9150
:10150000FF90EF90F7CB8AEFE816F104BCF410924D
:1015100001021092000260E080E183DB61E085E07F
:1015200080DB60E971E080E0E5DB60E084E079DBAE
:1015300061E08EE076DB6CE271E09CCF0A3F110542
:1015400084F4109201021092000260E080E169DBF5
:1015500061E085E066DB6CE271E080E0CBDB61E0BE
:10156000A6CF0F3E12400CF4ABCF92CF0F900F904E
:101570000F900F90DF91CF911F910F91FF90EF90FF
:101580000895FC0180819181009711F00C946627E9
:1015900060E070E0CB0108950F931F93CF93DF932A
:1015A000EC01FB0101900020E9F78F01061B170BEE
:1015B0008A819B81A801480F591F2C813D812417E6
:1015C000350768F028813981A801820F931F0E9496
:1015D000542A4A815B81400F511F5B834A83DF910C
:1015E000CF911F910F910895CF93DF93DC01149653
:1015F0002D913C911597232B79F0FB01CD91DC9136
:1016000060817181CE010E94872A009729F08C1B8E
:101610009D0BDF91CF9108958FEF9FEFFACF0F933E
:101620001F93CF93DF938C01EB01FC0180819181AB
:101630000097E1F06881798161157105A9F0428117
:1016400053812C813D814217530770F00E94712A0B
:101650008C819D81F801958384831D821C82DF919A
:10166000CF911F910F9108950E94C0268881998182
:10167000F801918380838A819B81938382838C810B
:101680009D8195838483198218821B821A82E5CFFB
:10169000CF93DF93EC0188819981009711F00E942C
:1016A000C026198218821D821C821B821A82DF9139
:1016B000CF910895FC01808191810C94C0260F93F5
:1016C0001F93CF93DF93EC0188819981009759F0A4
:1016D0002A813B812617370730F081E0DF91CF91D7
:1016E0001F910F9108958B016F5F7F4F0E947829A2
:1016F000009759F0998388831B830A832C813D814D
:10170000232B59F7FC011082E8CF80E0E7CFEF925E
:10171000FF920F931F93CF93DF931F921F92CDB72A
:10172000DEB78C0169831A82FC01E480F580FFEF4B
:10173000EF1AFF0AB701C3DF882381F0F801208187
:10174000318184819581BE016F5F7F4F820F931F2E
:101750000E94712AF801F582E48281E00F900F90D7
:10176000DF91CF911F910F91FF90EF900895EF922D
:10177000FF920F931F93CF93DF93EC017B018A01BC
:10178000BA019DDF81110AC0CE0182DFCE01DF9157
:10179000CF911F910F91FF90EF9008951D830C83BF
:1017A000B701888199810E94712AF0CFFB010190D5
:1017B0000020E9F73197AF01461B570BD8CFCF93E5
:1017C000DF93EC01FB018617970741F0608171817F
:1017D0006115710539F044815581C9DFCE01DF9172
:1017E000CF91089555DFFACFFC0111821082138248
:1017F000128215821482E3CFFC01118210821382BF
:101800001282158214826115710549F0FB01019065
:101810000020E9F73197AF01461B570BA8CF089579
:10182000AF92BF92CF92DF92EF92FF920F931F93EE
:10183000CF93DF936C015B017A018901241735078F
:1018400020F48F2D7901042F182F60EE72E0C6016D
:10185000D3DFD5011496CD91DC91EC16FD06D8F4BA
:101860000C171D0708F4E801D501ED91FC911197C3
:10187000EC0FFD1F108110826D917C916E0D7F1D0C
:10188000C6016115710599F091DFF50180819181A3
:10189000C80FD91F1883C601DF91CF911F910F91F7
:1018A000FF90EF90DF90CF90BF90AF900895F0DE63
:1018B000ECCF2F923F924F925F926F927F928F92D6
:1018C0009F92AF92BF92CF92DF92EF92FF920F93CF
:1018D0001F93CF93DF9300D000D0CDB7DEB71C01AC
:1018E0005B0165E572E0CE01019686DFBE016F5FA8
:1018F0007F4FC50179DE7C01CE010196DBDE2FEF43
:10190000E216F206F9F4A12CB12C00E010E0B501CA
:10191000C80126960FB6F894DEBF0FBECDBFDF918B
:10192000CF911F910F91FF90EF90DF90CF90BF90DC
:10193000AF909F908F907F906F905F904F903F906F
:101940002F90089585E0E80EF11CD50114960D91B5
:101950001C911597E016F10670F48D909C906AE347
:1019600070E0C4018E0D9F1D0E945D2A6C01C81895
:10197000D908892B19F4CC24CA94DC2C26010D2C0F
:10198000000C66087708BFEF4B165B066B067B06FC
:1019900009F4B9CFE016F10678F4F5018080918062
:1019A0006CE270E0C4018E0D9F1D0E945D2A8C01C7
:1019B00008191909892B11F40FEF1FEFC801012E27
:1019C000000CAA0BBB0B8F3FFFEF9F07AF07BF07B2
:1019D00009F43FC084159505A605B7050CF039C07C
:1019E0009801A701B501CE0101961ADFCE0101963B
:1019F000C8DD962ECE0101965DDE24E0291508F49F
:101A000082CFA8014F5F5F4F9601B501CE010196CD
:101A100007DFCE010196B5DD6B017C01CE01019699
:101A200049DE892D1C141D041E041F040CF06BCF0D
:101A3000D1011296ED91FC911397560187013097D1
:101A400009F465CF14962D913C91A601B701199523
:101A50005ECF9601A701B501CE010196E1DECE0170
:101A600001968FDD6B017C01CE01019623DE1C14F3
:101A70001D041E041F040CF046CF8FEFD9CF2F9208
:101A80003F924F925F926F927F928F929F92AF920E
:101A9000BF92CF92DF92EF92FF920F931F93CF935B
:101AA000DF9300D01F92CDB7DEB79C838B836B0191
:101AB0005A83498319012701380160EE72E09CDEE8
:101AC00044DA4B015C0141DA681979098A099B09FA
:101AD0006415750586059705C0F5D6018D919C9115
:101AE000DC01ED91FC910084F185E02D199518162B
:101AF00019064CF7F60180819181DC01ED91FC9192
:101B00000284F385E02D1995882339F3682F8B81A2
:101B10009C81FDDD69817A818B819C8165DD0196E7
:101B2000A1F4B1018B819C815FDD019671F46B8121
:101B30007C81C601BEDE672B682B692B71F260EEDB
:101B400072E08B819C8132DEC8CF8B819C810F90AB
:101B50000F900F900F90DF91CF911F910F91FF90F9
:101B6000EF90DF90CF90BF90AF909F908F907F903D
:101B70006F905F904F903F902F9008954F925F929B
:101B80006F927F928F929F92AF92BF92CF92DF928D
:101B9000EF92FF920F931F93CF93DF93EC017B01A2
:101BA0006A012801390160EE72E026DECED94B01D0
:101BB0005C01CBD9681979098A099B0964157505F7
:101BC0008605970568F5D7018D919C91DC01ED9113
:101BD000FC910084F185E02D1995181619064CF733
:101BE000F70180819181DC01ED91FC910284F38504
:101BF000E02D1995882339F3682FCE0188DDB601D1
:101C0000CE01F2DC019661F4BE01C70152DE672B02
:101C1000682B692BC1F260EE72E0CE01C7DDD3CF35
:101C2000CE01DF91CF911F910F91FF90EF90DF9048
:101C3000CF90BF90AF909F908F907F906F905F906C
:101C40004F9008952F923F924F925F926F927F92A2
:101C50008F929F92AF92BF92CF92DF92EF92FF92BC
:101C60000F931F93CF93DF93CDB7DEB762970FB675
:101C7000F894DEBF0FBECDBF2C013B014A01190114
:101C8000580160EE72E0CE010D96B6DDB301CE01D3
:101C90000196AADD97018601AE014F5F5F4FB20149
:101CA000CE0107966BDFBE01695F7F4FCE010D96B7
:101CB000B6DCCE010796FEDCCE010196FBDCB3015B
:101CC000CE010D9691DC019609F4A1C0B401CE01BC
:101CD0000D968ADC6C01990FEE08FF08B101CE0168
:101CE0000D9682DC9C01092E000CAA0BBB0B4FEF5A
:101CF000C416D406E406F40609F43BC08F3F9F4F98
:101D0000AF4FBF4F09F43DC0F40184819581B70105
:101D1000A601480F591F611D711DBE01635F7F4FF2
:101D2000CE0101967DDDBE016F5F7F4FC50177DC7F
:101D3000CE010196BFDC11E0CE010D96BBDC812FF8
:101D400062960FB6F894DEBF0FBECDBFDF91CF9184
:101D50001F910F91FF90EF90DF90CF90BF90AF90C9
:101D60009F908F907F906F905F904F903F902F90BB
:101D700008958F3F9F4FAF4FBF4F19F050E040E0A5
:101D8000CCCF6BE572E0CE01019636DDBE016F5F10
:101D90007F4FC50129DC7C01CE0101968BDC2FEF42
:101DA000E216F20689F0970150E040E0BE01635F61
:101DB0007F4FCE01019634DDBE016F5F7F4FC501BD
:101DC0002EDCCE01019676DC6DE572E0CE01019647
:101DD00013DDBE016F5F7F4FC50106DC7C01CE01C4
:101DE000019668DC4FEFE416F40689F0970150E0A5
:101DF00040E0BE01635F7F4FCE01019611DDBE0161
:101E00006F5F7F4FC5010BDCCE01019653DCBE0135
:101E1000635F7F4FC501D3DC10E08ECF8F929F921E
:101E2000AF92BF92CF92DF92EF92FF920F931F93E8
:101E3000CF93DF93CDB7DEB762970FB6F894DEBFCE
:101E40000FBECDBF6C017B0149015A0160EE72E00B
:101E5000CE010D96D1DCB701CE010196C5DC95010E
:101E60008401AE014F5F5F4FB601CE01079686DE5B
:101E7000BE01695F7F4FCE010D96D1DBCE01079683
:101E800019DCCE01019616DCB701CE010D96ACDB54
:101E90007C01CE010D960EDC81E0EF20E09409F488
:101EA00080E062960FB6F894DEBF0FBECDBFDF9123
:101EB000CF911F910F91FF90EF90DF90CF90BF9047
:101EC000AF909F908F900895CF92DF92EF92FF9204
:101ED0000F931F93CF93DF9300D000D0CDB7DEB721
:101EE0008C0160EE72E0CE01019686DC2ED86B018B
:101EF0007C012BD86C197D098E099F096A30710508
:101F00008105910558F5D8018D919C91DC01ED91E9
:101F1000FC910084F185E02D1995892B51F3F8018E
:101F200080819181DC01ED91FC910284F385E02DAB
:101F300019958823F1F2682FCE010196E8DBBE01E6
:101F40006F5F7F4FC801B5DC672B682B692B71F27F
:101F500060EE72E0CE01019629DCC8CFCE01019679
:101F6000A9DB26960FB6F894DEBF0FBECDBFDF917A
:101F7000CF911F910F91FF90EF90DF90CF90089538
:101F80008F929F92AF92BF92CF92DF92EF92FF9289
:101F90000F931F93CF93DF93CDB7DEB7AA970FB6FA
:101FA000F894DEBF0FBECDBF8C0149015A01CE01AE
:101FB0004F961ADC62E672E0CE0185961DDC60EE7B
:101FC00072E0CE01499618DCC8017EDF68EB76E04E
:101FD000D8018D919C910E9452042AE041E050E08A
:101FE00060E070E0F8018081918182D865EB76E055
:101FF000D8018D919C910E945204BE016B5D7F4F70
:10200000F801808191810E94440461EB76E0D8015F
:102010008D919C910E945204BE01615E7F4FF80138
:10202000808191810E9444046EEA76E0D8018D910E
:102030009C910E945204F801E080F1802AE0B501F1
:10204000A401C70155D86EED72E0C70142D866E61B
:1020500072E0CE010D96D0DB66E772E0CE01079606
:10206000CBDB6FE572E0CE010196C6DB60EE72E07D
:10207000CE014396C1DB0E94A5076B017C010E9443
:10208000A5076C197D098E099F096031774281058A
:10209000910508F045C0D8018D919C91DC01ED912E
:1020A000FC910084F185E02D1995181619063CF76E
:1020B000F80180819181DC01ED91FC910284F3852E
:1020C000E02D1995882339F3682FCE0143961FDB45
:1020D000BE016F5F7F4FCE01439686DA019601F510
:1020E000BE01695F7F4FCE0143967EDA0196C1F44F
:1020F000BE01635F7F4FCE01439676DA019681F48D
:10210000BE016D5E7F4FC801D4DB672B682B692B46
:1021100009F4C1CF60EE72E0CE01439647DBBBCF3E
:10212000BE016D5E7F4FCE01499679DACE014396AE
:10213000C1DACE010196BEDACE010796BBDACE0136
:102140000D96B8DA6FE572E0CE01079655DBBE0159
:10215000695F7F4FCE01499647DA11E0019691F40D
:1021600066E672E0CE01019647DBBE016F5F7F4FEE
:10217000CE01499639DA11E0019609F410E0CE015A
:10218000019698DACE01079695DACE01499692DA51
:10219000CE0185968FDACE014F968CDA812FAA96E2
:1021A0000FB6F894DEBF0FBECDBFDF91CF911F9168
:1021B0000F91FF90EF90DF90CF90BF90AF909F90E6
:1021C0008F900895CF92DF92EF92FF920F931F931B
:1021D000CF93DF93CDB7DEB7A4970FB6F894DEBFE9
:1021E0000FBECDBF6C018B01BA01CE014996FCDA5E
:1021F000B801CE014F96F8DA60EE72E0CE01439658
:10220000FBDAC60161DE63EA76E0F6018081918146
:102210000E945204BE01615E7F4FF6018081918170
:102220000E9444046FE976E0F601808191810E946A
:102230005204BE01675E7F4FF601808191810E944A
:1022400044046DE976E0F601808191810E940F09D6
:102250006CE772E0CE010796CFDA6FE572E0CE014F
:102260000196CADA10E1E12E17E2F12E00E010E04B
:102270009E01295F3F4FAE014F5F5F4FB601CE0118
:102280000D96FDDBBE01635F7F4FCE014396C7D93C
:10229000CE010D960FDACE0101960CDACE0107962B
:1022A00009DA6FE572E0CE010196A6DABE016F5F32
:1022B0007F4FCE01439698D96C01CE010196FAD991
:1022C000CE014396F7D9CE014F96F4D9CE01499667
:1022D000F1D981E0CD20C09409F480E0A4960FB636
:1022E000F894DEBF0FBECDBFDF91CF911F910F914C
:1022F000FF90EF90DF90CF9008952F923F924F92F2
:102300005F926F927F928F929F92AF92BF92CF9285
:10231000DF92EF92FF920F931F93CF93DF93EC0125
:102320005B016A010E94A5072B013C011E012DEFF4
:10233000221A2EEF320A7E018BEFE81A8EEFF80A8E
:10234000F10180819181F70120813181821B930B02
:1023500097FD93958C159D0578F40E94A507641947
:102360007509860997096C3D75408105910520F432
:1023700088819981A9DDE4CF360146012E0123E051
:10238000420E511C8114910479F0F10180819181F8
:10239000F70120813181821B930B97FD9395009764
:1023A000B9F4360168187908C301DF91CF911F9104
:1023B0000F91FF90EF90DF90CF90BF90AF909F90E4
:1023C0008F907F906F905F904F903F902F900895E7
:1023D000F70100811181C0E0D1E0C01BD10B8C1648
:1023E0009D060CF4E4018C179D070CF4EC01B2017E
:1023F000600F711FAE01C5010E94542A0C0F1D1FF2
:102400001127F701118300838C1A9D0AAC0EBD1EA3
:10241000B9CFCF92DF92EF92FF920F931F93CF939A
:10242000DF93CDB7DEB768970FB6F894DEBF0FBE67
:10243000CDBFFC011282EB5FFE4F118210823297FA
:1024400011821082FC01C080D18060EE72E0CE016A
:102450004396D2D9C60138DD67EF70E0F60180817E
:1024600091810E94520461E0F601808191810E9475
:10247000C30861E872E0CE010796BED96FE572E04D
:10248000CE010196B9D918E8E12E13E1F12E00E052
:1024900010E09E01295F3F4FAE014F5F5F4FB601D5
:1024A000CE010D96ECDABE01635F7F4FCE014396FD
:1024B000B6D8CE010D96FED8CE010196FBD8CE013E
:1024C0000796F8D86FE572E0CE01079695D9BE0160
:1024D000695F7F4FCE01439687D8019641F461E84A
:1024E00072E0CE01019688D9CE010196E3D8CE01E3
:1024F0000796E0D8CE014396DDD868960FB6F894DB
:10250000DEBF0FBECDBFDF91CF911F910F91FF9026
:10251000EF90DF90CF9008950F931F93CF93DF93A9
:10252000CDB7DEB762970FB6F894DEBF0FBECDBF52
:102530008C01CB014AE0BE016F5F7F4F0E9495275F
:10254000BE016F5F7F4FC80127D862960FB6F8941F
:10255000DEBF0FBECDBFDF91CF911F910F910895C8
:102560003F924F925F926F927F928F929F92AF9223
:10257000BF92CF92DF92EF92FF920F931F93CF9370
:10258000DF93CDB7DEB7A3970FB6F894DEBF0FBECB
:10259000CDBF6C010DB71EB71BA30AA360E070E0AE
:1025A000CB010E947407D60157968D919C91589744
:1025B000B12C0297B1F056968C9156978F5F569634
:1025C0008C93569754962D913C915597232B49F116
:1025D000BB24B394D60156968C915697815056964B
:1025E0008C938B2DAAA1BBA10FB6F894BEBF0FBED2
:1025F000ADBFA3960FB6F894DEBF0FBECDBFDF917F
:10260000CF911F910F91FF90EF90DF90CF90BF90EF
:10261000AF909F908F907F906F905F904F903F9082
:1026200008958330A8F6ED91FC918281882309F406
:10263000B5C3FE0131964F0150E1452E512CD60114
:102640000D911C91F801808191813EDCF801ED5FD4
:10265000FE4F80819181329620813181821B930BC4
:1026600097FD9395181619060CF098C345E050E0B5
:10267000BE01695E7F4FD6018D919C913EDE009731
:10268000F1F2059709F07AC0888D998D98278927EE
:102690009827998F888F0A8D1B8D10270127102767
:1026A0001B8F0A8F892B09F469C08F8981117DC026
:1026B0000E94A507F6016683778380879187278923
:1026C000308D8A8D9B8D232B09F06BC0288D398D21
:1026D0002130310509F065C08930910509F43FC00A
:1026E000883C910519F0049709F04EC00E94DA0861
:1026F00068E173E081E293E00E945204D6011696ED
:102700004D915D916D917C9119971E968D919D9142
:102710000D90BC91A02D481B590B6A0B7B0B2AE036
:1027200081E293E00E94780863E173E081E293E044
:102730000E940F09F60186819781A085B185868761
:102740009787A08BB18B01E010E0108F078BC6013B
:1027500011D660E070E0CB010E94740770CF0E9438
:10276000DA086AE676E081E293E00E940F0983E0EE
:1027700090E0D60158969C938E935797F6018081EE
:10278000918147DEB12C26CF0E94DA0863E576E01E
:1027900081E293E00E9452048A8D9B8D0E94FB0887
:1027A000EDCF059709F04BCFE9CF0130B4E01B071F
:1027B00098F00E94DA0862E476E081E293E00E94F9
:1027C00052048A8D9B8D0E94FB08F601108E178A99
:1027D000808191811EDE33CFADB6BEB6C8010196B1
:1027E0002DB73EB7281B390B0FB6F8943EBF0FBE6E
:1027F0002DBF4DB75EB74F5F5F4F7A01A801B7019C
:10280000D6018D919C9179DD8017910709F07CC0EC
:10281000EA8DFB8DEE0DFF1D10820E94A507F601CB
:1028200066837783808791878F89813109F4A6C277
:1028300090F58630F9F08F3009F4DFC0823089F5E9
:10284000D60157968D919C91892BA1F40E94DA08AC
:102850006CE376E081E293E00E940F0901E010E072
:10286000F601108F078BC60185D560E070E0CB01C3
:102870000E947407488D598DF12CE12C08EC10E072
:1028800030E020E060E0C601B2D30FB6F894BEBEDF
:102890000FBEADBED4CE8D3199F260F4843109F40F
:1028A000ACC0D60158961C921E9257978D919C9160
:1028B000B0DDEBCF893291F0873399F78A8D9B8D0C
:1028C000892B19F30E94DA0863E276E081E293E053
:1028D0000E945204C7010E94EA08D7CF84819581E3
:1028E000892B39F480E290E00E942426F60195833A
:1028F00084830A8D1B8D0E0D1F1DFA82E9821C83B5
:102900000B83E016F10630F00FB6F894BEBE0FBE92
:10291000ADBE34CF40E250E0B701D60114968D91A0
:102920009C910E94782AC4010E94A209FC01808126
:1029300091818017910708F05DC089819A81009785
:1029400009F454C02B813C818217930708F04EC0D4
:102950000E9466278B010E94DA086CE276E081E231
:1029600093E00E945204D60114966D917C916115FA
:10297000710521F081E293E00E9469086AE381E237
:1029800093E00E941405C8010E94FB08F6018081B3
:1029900091813FDDD6018D919C91119714962D91D7
:1029A0003C911597FC01E95FFE4F31832083875FDF
:1029B0009E4FFC011183008358961C921E925797DC
:1029C0000E94A507DC01CB0188589341A109B109F8
:1029D000F60182879387A487B58786839783A0872C
:1029E000B18786879787A08BB18B4FCF60E070E06F
:1029F000CB01B0CF00E510E0AECF888D998DD60128
:102A000055969C938E9354970A8D1B8D19A308A3FA
:102A100038016E0C7F1CFD8EEC8E7F8E6E8EE61460
:102A2000F70408F02BC1D7010D911C91CE014C96F3
:102A30000E94A209FC01808191818615970508F00A
:102A40001DC18C8D9D8DDC012C91213409F060C05D
:102A500001960E94492746E3342E380E40970CF425
:102A60005CC00637B2E71B0709F43FC108F0AEC2ED
:102A70000136F2E71F0709F495C2043622E7120770
:102A800009F05BC033243A949A8A898A1C8A1B8A8B
:102A90005E8A4D8A6BE972E0CE0141960E94CC0AB3
:102AA000032D10E0B801CE01419636DDF801E45364
:102AB000FC4F8491F801EA57FC4FF490005C1C4FE6
:102AC000F801049160E070E0002389F081110E9418
:102AD000AA05E02FF0E0EE0FFF1FEA5DFC4FA59185
:102AE000B491EC91FE2261E070E009F460E0CE0167
:102AF000419612DD0B891C890150110929893A89F7
:102B0000F12CE12C50E040E064E1C60170D2B6C087
:102B1000CE014C960E94E609382E0637B2E71B0715
:102B200009F4E5C028F50136F2E71F0709F4AAC049
:102B3000043622E7120709F4A7CF00371D4609F42F
:102B400065C00E94DA0862E176E081E293E00E94CB
:102B50005204C7010E94EA08D60154964D915C9137
:102B6000F12CE12C02E010E030E020E060E0CDCF7D
:102B7000043647E7140709F468C0063757E7150716
:102B800009F4CFC001361747E1F6CE014C960E94FA
:102B9000A209DC018D919C918615970508F06EC005
:102BA00061E0832D0E943E06CE014C960E94E6090C
:102BB000BC01832D0E947A0661C0CE014C960E9412
:102BC000E609F82ECE014C960E94A2090C8D1D8DAF
:102BD0006DE872E0C8010E94682A60E0892B79F0F4
:102BE00060E972E0C8010E94682A892B39F064E923
:102BF00072E0C8010E94682A892BE1F461E08F2D00
:102C00000E943E06CE014C960E94A2098C8D9D8D9D
:102C10008615970598F5DC012C91213471F6019603
:102C20000E94492736E3F32EF80E40975CF2FF240A
:102C3000FA94C8CF68E972E0C8010E94682A892B1B
:102C400009F762E0DCCF33243A94CE014C960E941F
:102C5000A209DC018D919C918615970578F461E0BD
:102C6000832D0E943E06CE014C960E94E60961E04B
:102C7000892B09F460E0832D0E941106F601158A64
:102C8000148A03CE9A8A898A1C8A1B8A5E8A4D8A94
:102C90006EE972E0CE0141960E94CC0A632D70E08D
:102CA000CE01419639DCB5E3B31510F4EAEC3E0EE3
:102CB00090917B00832D8870977F892B80937B0078
:102CC000832D8770806480937C0080917A0080647B
:102CD00080937A0080917A0086FDFCCF8091780005
:102CE00060917900762F682F02CF33243A9439828D
:102CF00037FCC4CFE32DF0E0EE0FFF1FEE5EFB4F7D
:102D0000259134912115310509F4B8CFB3E02D3D5B
:102D10003B0709F4B3CFC401F9011995AFCF3324B0
:102D20003A94CE014C960E94A2092C8D3D8DC9018A
:102D30008E199F0908A119A1081B190B3A83298331
:102D40001C830B831E830D83398A37FC97CFE32DB9
:102D5000F0E0EE0FFF1FEE5EFA4F25913491211542
:102D6000310509F48BCF13E02C3D310709F486CFF0
:102D7000B401CE014196F901199580CF8A8D9B8DC2
:102D80008E0D9F1DFA82E9829C838B83E816F906DB
:102D900008F07BCDC4010E94A20977CD0E94A5074F
:102DA0002B013C01D6018D919C911197FC01B280C1
:102DB00057962D913C9158972130310509F06FC0FD
:102DC000B1100CC01E964D925D926D927C925197FF
:102DD00058961C921E9257971CDBFCCBF6018681FD
:102DE0009781A085B18593018201081B190B2A0BDD
:102DF0003B0BD901C80189331AE49107A105B1053C
:102E000080F00E94DA086BE876E081E293E00E94AD
:102E10000F09D60158961C921E9257978D919C913E
:102E2000B0CC81319742A105B10598F4F6018285B5
:102E30009385A485B58593018201081B190B2A0B84
:102E40003B0BD901C80181319742A105B10508F4B6
:102E5000BFCBF60186859785A089B1899301820150
:102E6000081B190B2A0B3B0BD901C801893B9B405E
:102E7000A105B10508F4ACCBF12CE12C10E000E089
:102E800030E020E050E040E066E0C601B0D0D6017E
:102E90001E964D925D926D927C9251979BCB232B07
:102EA00009F096CBF60146855785608971899301B3
:102EB0008201041B150B260B370BB901A801BB209F
:102EC000B1F0493B5B406105710508F481CB0E947C
:102ED000DA086DE776E081E293E00E940F09D601FF
:102EE0008D919C9196DAF601108E178A4BCC493859
:102EF00053416105710508F46BCB8BDAD6010D9156
:102F00001C91F801E95FFE4F6081718161157105C7
:102F100031F4F60146865786608A718A5BCBF801E8
:102F2000E75FFE4FE080F180E114F10491F3D801F6
:102F30008D909C90CE0101960E94FC0B970150E071
:102F400040E0BE016F5F7F4FC4011AD8F801828351
:102F5000CE0101960E945A0BD8011296AC90AA207D
:102F6000C1F281E090E0F601938B828B2281338164
:102F7000F90101900020E9F731978F01021B130B33
:102F8000F12CE12C41E050E06DE1C60130D0F601BA
:102F900082859385A485B58586879787A08BB18B1D
:102FA000BA2C18CB9A8A898A1C8A1B8A5E8A4D8A17
:102FB0006EE972E0CE0141960E94CC0A6FEF70E09C
:102FC000CE014196A9DA33243A9470CE043647E70D
:102FD000140709F438CE063757E7150709F49FCED2
:102FE0000136174709F0ADCD33243A94CECD2F9258
:102FF0003F924F925F926F927F928F929F92AF9289
:10300000BF92CF92DF92EF92FF920F931F93CF93D5
:10301000DF93CDB7DEB72E970FB6F894DEBF0FBEA5
:10302000CDBF7C01762E6A0159012DB73EB73A8794
:103030002987DC01ED91FC918281882309F451C13B
:10304000662371F0862F8B7F823009F48FC1BDE13A
:103050006B1731F0F7018789908D019709F041C115
:10306000C114D104B9F4D7015496CD90DC90559792
:10307000C114D10479F452968D919C915397019685
:1030800009F4F7C053969C938E935297D7015296AA
:10309000CD90DC9084EF870D893088F5F70182852B
:1030A0009385A485B58546815781608571854817CC
:1030B00059076A077B0710F4AC01BD011A012B0107
:1030C000F2E42F0E311C411C511C0E94A507A201E5
:1030D0009101261B370B480B590BDA01C901B7FDCB
:1030E000CEC0C7013DDA0E94A507A2019101261BAF
:1030F000370B480B590BDA01C901B7FFF2CF480172
:10310000B5E08B0E911CA114B10419F495E0892E41
:10311000912CEDB7FEB7E819F9090FB6F894FEBF88
:103120000FBEEDBF2DB73EB72F5F3F4F38872F83C0
:103130007182DC24CD24DC24D9011296DC92CE925B
:103140001197902F812F14969C938E931397A1140F
:10315000B10451F00115110539F08DB79EB70696EF
:10316000A801B5010E94542AD12CC12CC814D9043D
:1031700008F0C2C05401AC18BD08B8E2AB16B104E7
:1031800018F088E2A82EB12CD701ED91FC910081B6
:103190001181950150E040E02B873C874D875E8789
:1031A000C8010E94640F67E073E0D8018D919C9183
:1031B0000E9452042AE041E050E060E070E0F80133
:1031C000808191810E94780865E073E0D8018D913B
:1031D0009C910E945204F801608071802AE04B8526
:1031E0005C856D857E85C3010E9478086EED72E076
:1031F000C3010E94690861EA72E0CE0101960E9453
:10320000FC0B28E833E140E050E0BE016F5F7F4FE8
:10321000C8010E940E0F782ECE0101960E945A0B13
:10322000772009F44BC0C8010E94640F2F803884B6
:103230002C0C3D1C412C512C32012B853C854D859D
:103240005E85421653066406750608F5D8018D9111
:103250009C91F10161911F01DC01ED91FC910190C4
:10326000F081E02D1995BFEF4B1A5B0A6B0A7B0AC0
:10327000E4CF81E090E0F701938B828B07CFD701F9
:1032800056968C9181113BCFC7016AD938CF63EA3A
:1032900072E0CE0101960E94FC0B20E137E240E093
:1032A00050E0BE016F5F7F4FC8010E940E0F182FC4
:1032B000CE0101960E945A0B111102C0B12CA12C13
:1032C00060E070E0CB010E947407A114B10489F49E
:1032D000F701808191819DD8D70158961C921E924A
:1032E000579729853A850FB6F8943EBF0FBE2DBF7C
:1032F0001DC0CA0CDB1C3ACF8C149D0439F0F701B9
:10330000108E178A8081918184D8EBCF0E94A50707
:10331000D7011A966D937D938D939C931D97E985A4
:10332000FA850FB6F894FEBF0FBEEDBF49855A85EA
:103330000FB6F8945EBF0FBE4DBF2E960FB6F89431
:10334000DEBF0FBECDBFDF91CF911F910F91FF90D8
:10335000EF90DF90CF90BF90AF909F908F907F9035
:103360006F905F904F903F902F900895452B09F0FC
:10337000C6CE79CECF92DF92EF92FF920F931F933A
:10338000CF93DF93CDB7DEB7C85AD1090FB6F89403
:10339000DEBF0FBECDBF6C0148E650E06CE071E0CF
:1033A000CE0101960E948C27CE0187599F4F7C0148
:1033B00008E610E09E012F5F3F4F50E040E061E1E2
:1033C000C60115DEC855DF4F0FB6F894DEBF0FBE3D
:1033D000CDBFDF91CF911F910F91FF90EF90DF90C4
:1033E000CF900895EF92FF920F931F93CF93DF93A7
:1033F000CDB7DEB7C650D4400FB6F894DEBF0FBECF
:10340000CDBF8C01CE010196CF5FDB4F99838883BE
:10341000C150D440CD5FDB4F19821882C350D440D5
:1034200080E094E0CB5FDB4F99838883C550D44024
:103430006BEA72E0CE018F5F9B4F0E94CC0A6CE07A
:1034400070E0CE018F5F9B4F67D8B801CE018F5FD0
:103450009B4F62D8CD5FDB4F08811981C350D440A8
:1034600001501109CF5FDB4F28813981C150D44011
:10347000F12CE12C50E040E064E18DE796E0B7DD0F
:10348000CA5FDB4F0FB6F894DEBF0FBECDBFDF9132
:10349000CF911F910F91FF90EF9008950F931F937D
:1034A00060E08CE00E94110683E090E00197F1F764
:1034B00061E08CE00E94110683E290E00197F1F751
:1034C00060E08CE00E941106E3E9F3E06491EDE432
:1034D000F3E0E491F0E0EE0FFF1FEA5DFC4F859111
:1034E000949100E412E42FE030E0462FE0D1611522
:1034F00071058105910529F06F5F7F4F8F4F9F4FB9
:103500009F700E94E72726E933E44BE05DE30E94C9
:10351000222820E030E040E05FE30E9422280E9461
:103520003329CB011F910F915DCF1F920F920FB6E0
:103530000F9211240BB60F922F933F934F935F93EB
:103540006F937F938F939F93AF93BF93EF93FF936B
:103550008AED95E00E94F204FF91EF91BF91AF9147
:103560009F918F917F916F915F914F913F912F919B
:103570000F900BBE0F900FBE0F901F9018951F92CB
:103580000F920FB60F9211240BB60F922F938F93B9
:103590009F93EF93FF93E091EA05F091EB05808113
:1035A000E091F005F091F10582FD1DC090818091C0
:1035B000F3058F5F8F732091F405821741F0E0913E
:1035C000F305F0E0E652FA4F958F8093F305FF91F3
:1035D000EF919F918F912F910F900BBE0F900FBE87
:1035E0000F901F9018958081F2CF1F920F920FB607
:1035F0000F9211240BB60F922F933F934F935F932B
:103600006F937F938F939F93AF93BF93EF93FF93AA
:1036100081E293E00E94F204FF91EF91BF91AF919C
:103620009F918F917F916F915F914F913F912F91DA
:103630000F900BBE0F900FBE0F901F9018951F920A
:103640000F920FB60F9211240BB60F922F938F93F8
:103650009F93EF93FF93E0913103F09132038081C8
:10366000E0913703F091380382FD1DC09081809175
:103670003A038F5F8F7320913B03821741F0E091F3
:103680003A03F0E0EF5DFC4F958F80933A03FF9192
:10369000EF919F918F912F910F900BBE0F900FBEC6
:1036A0000F901F9018958081F2CF1F920F920FB646
:1036B0000F9211242F933F938F939F93AF93BF93B8
:1036C0008091150390911603A0911703B0911803F0
:1036D0003091140323E0230F2D3758F50196A11DD7
:1036E000B11D209314038093150390931603A093A8
:1036F0001703B09318038091190390911A03A091B6
:103700001B03B0911C030196A11DB11D80931903E9
:1037100090931A03A0931B03B0931C03BF91AF9126
:103720009F918F913F912F910F900FBE0F901F90FF
:10373000189526E8230F0296A11DB11DD2CF1F9226
:103740000F920FB60F9211240BB60F922F933F9347
:103750004F935F936F937F938F939F93AF93BF9399
:10376000EF93FF9348E251E064E271E090E080E083
:103770000E94B107FF91EF91BF91AF919F918F91FF
:103780007F916F915F914F913F912F910F900BBE61
:103790000F900FBE0F901F9018951F920F920FB6AB
:1037A0000F9211240BB60F922F933F934F935F9379
:1037B0006F937F938F939F93AF93BF93EF93FF93F9
:1037C00048EA50E064EA70E083E090E00E94B107CC
:1037D000FF91EF91BF91AF919F918F917F916F91E9
:1037E0005F914F913F912F910F900BBE0F900FBEA5
:1037F0000F901F9018951F920F920FB60F921124E1
:103800000BB60F922F933F934F935F936F937F93DA
:103810008F939F93AF93BF93EF93FF9348E950E04B
:1038200064E970E082E090E00E94B107FF91EF91BF
:10383000BF91AF919F918F917F916F915F914F91C8
:103840003F912F910F900BBE0F900FBE0F901F90C6
:1038500018951F920F920FB60F9211240BB60F926C
:103860002F933F934F935F936F937F938F939F9388
:10387000AF93BF93EF93FF9348E850E064E870E0A4
:1038800081E090E00E94B107FF91EF91BF91AF916D
:103890009F918F917F916F915F914F913F912F9168
:1038A0000F900BBE0F900FBE0F901F901895CF92E8
:1038B000DF92EF92FF920F931F93E82FF92F05C02D
:1038C000015011092109310961F190819623941762
:1038D000B9F305C0015011092109310911F1908195
:1038E00096239413F7CFC12CD12CE12CF12C0AC0D4
:1038F0008FEFC81AD80AE80AF80A0C151D052E051C
:103900003F0579F080818623841791F36C2D7D2DFE
:103910008E2D9F2D1F910F91FF90EF90DF90CF90F4
:10392000089560E070E080E090E01F910F91FF90BB
:10393000EF90DF90CF9008951092DD051092DC0596
:1039400048EE53E060E070E04093DE055093DF0501
:103950006093E0057093E10587E492E09093DB05C6
:103960008093DA052DEC30E03093E7052093E605EF
:103970002CEC30E03093E9052093E80528EC30E0AA
:103980003093EB052093EA0529EC30E03093ED0508
:103990002093EC052AEC30E03093EF052093EE0500
:1039A0002EEC30E03093F1052093F0051092F305F2
:1039B0001092F4051092F5051092F605109224036A
:1039C000109223034093250350932603609327030B
:1039D00070932803909322038093210385EC90E059
:1039E00090932E0380932D0384EC90E0909330030A
:1039F00080932F0380EC90E0909332038093310307
:103A000081EC90E0909334038093330382EC90E058
:103A1000909336038093350386EC90E090933803BF
:103A20008093370310923A0310923B0310923C03A9
:103A300010923D031092C4031092C5031092C60366
:103A40001092C7031092C8031092C9031092CA03C0
:103A50001092CB031092CC031092CD031092CE03A0
:103A60001092CF031092D0031092D1031092D20380
:103A70001092D3036EEA72E083EA97E00E94FC0B97
:103A8000109299061092980610929A0610929E072C
:103A900010929D0710929C0710929B071092A0070E
:103AA00010929F071092A2071092A10788E996E052
:103AB00090937E0680937D061092800610927F067A
:103AC000109282061092810610928306109284064C
:103AD000109285061092860610928706109288062C
:103AE0001092890610928A0610928B0610928C060C
:103AF00010928D0610928E061092900610928F06EC
:103B000010929206109291061092930610929506CA
:103B10001092940610929706109296068AED95E000
:103B2000909378068093770610927A061092790621
:103B300010927C0610927B068FEF9FEF9093D90531
:103B40008093D80580919404803398F491E0980F85
:103B5000909394048093950490E0FC01EE0FFF1F76
:103B6000E80FF91FEC5FFB4F88EB9BE092838183AA
:103B700008958FEF809395040895CF93DF93CDB789
:103B8000DEB76E970FB6F894DEBF0FBECDBF789448
:103B900084B5826084BD84B5816084BD85B5826052
:103BA00085BD85B5816085BD80916E008160809303
:103BB0006E0010928100809181008260809381006C
:103BC000809181008160809381008091800081607C
:103BD000809380008091B10084608093B1008091D7
:103BE000B00081608093B0008091910082608093EA
:103BF000910080919100816080939100809190006C
:103C00008160809390008091A10082608093A100E8
:103C10008091A10081608093A1008091A0008160CB
:103C20008093A00080912101826080932101809186
:103C30002101816080932101809120018160809326
:103C4000200180917A00846080937A0080917A00CC
:103C5000826080937A0080917A00816080937A00FC
:103C600080917A00806880937A001092C10010924F
:103C700000041092010410920204109203041092A6
:103C8000C0031092C1031092C2031092C3030E949A
:103C9000A5076B017C012B013C0128EB420E2BE0B8
:103CA000521E611C711C0E94A5076C157D058E05B6
:103CB0009F0528F04616570668067906A0F768EEB5
:103CC00073E080E090E00E94740740E855E260E015
:103CD00070E081E293E00E9497036CEB72E081E276
:103CE00093E00E9469080E94A5076B017C012B01EB
:103CF0003C013AE0430E511C611C711C0E94A50757
:103D00006C157D058E059F0528F04616570668063A
:103D10007906A0F781E08093D40340E855E260E0A3
:103D200070E081E293E00E94970340E052EC61E092
:103D300070E08AED95E00E9497038CE192E0909309
:103D4000800680937F060E94A507DC01CB0188587E
:103D50009341A109B1098093870690938806A093A7
:103D60008906B0938A068093830690938406A09375
:103D70008506B093860680938B0690938C06A0935D
:103D80008D06B0938E060E94DA0863E772E081E246
:103D900093E00E940F0987E796E09093970680933F
:103DA0009606E0917D06F0917E069183808381E204
:103DB00099E090937A0680937906F0937C06E093DD
:103DC0007B0680917D0690917E06FC01E95FFE4FA7
:103DD0002DEC32E031832083875F9E4F20E530E079
:103DE000FC013183208364EF71E080E090E00E9469
:103DF00074070E94DA0864E672E081E293E00E94B0
:103E0000520482E192E00E94EA08E0909606F09067
:103E10009706C7010E94640F6FED71E0F701808182
:103E200091810E940F096FE572E0CE0101960E9418
:103E3000FC0B28EE33E040E050E0BE016F5F7F4FA7
:103E4000C7010E940E0FF82ECE0101960E945A0B58
:103E5000F1102EC00E94DA086EE472E081E293E075
:103E60000E940F0980917D0690917E060E940912A2
:103E700010929506109294060E94A5076B017C0192
:103E80008091940690919506019709F467C20E946B
:103E9000A5076C197D098E099F0968327342810557
:103EA000910508F05BC28DE796E00E94B012E8CF62
:103EB000E0909606F0909706C7010E94640F6BEDA4
:103EC00071E0F701808191810E94520460E0F70166
:103ED000808191810E94C3086FE572E0CE01019656
:103EE0000E94FC0B28EE33E040E050E0BE016F5F23
:103EF0007F4FC7010E940E0FF82ECE0101960E943F
:103F00005A0BF11005C00E94DA0867E372E0A6CFF1
:103F1000A0909606B090970660EE72E0CE014996AA
:103F20000E94FC0BC5010E94640F68EB7BE080E0FF
:103F300090E00E94740764ED71E0F5018081918149
:103F40000E940F096BE572E0CE0101960E94FC0B06
:103F50006DED72E0CE0107960E94FC0B6FE572E0FA
:103F6000CE010D960E94FC0B20E1C22E27E2D22E3C
:103F7000E12CF12C8E01075E1F4F9E012F5F3F4FFA
:103F8000AE01495F5F4FBE01635F7F4FC5010E9475
:103F9000220ECE010D960E945A0BCE0107960E946A
:103FA0005A0BCE0101960E945A0B0E94DA08B80102
:103FB00081E293E00E9444046EED72E081E293E0BE
:103FC0000E946908C0909606D090970660EE72E055
:103FD000CE0143960E94FC0BC6010E94640F69EC5F
:103FE00071E0F601808191810E94520461E0F60146
:103FF000808191810E94C30861EE72E0CE01079634
:104000000E94FC0B6FE572E0CE0101960E94FC0B52
:1040100018EEE12E13E0F12E00E010E09E01295F82
:104020003F4FAE014F5F5F4FB601CE010D960E942C
:104030003F0DBE01635F7F4FCE0143960E940F0B81
:10404000CE010D960E945A0BCE0101960E945A0B8A
:10405000CE0107960E945A0B6FE572E0CE010196E1
:104060000E94FC0BBE016F5F7F4FCE0143960E9402
:10407000F40A7C01CE0101960E945A0BCE014396B0
:104080000E945A0BEF20E09441F40E94DA0862E2A9
:1040900072E081E293E00E940F09A0909606B09032
:1040A000970660EE72E0CE0143960E94FC0BC501BC
:1040B0000E94640F6EEB71E0F501808191810E9496
:1040C0000F096BE572E0CE010D960E94FC0B64E0D7
:1040D00073E0CE0107960E94FC0B6FE572E0CE0103
:1040E00001960E94FC0B98EEC92E93E0D92EE12C8C
:1040F000F12C8E010D5E1F4F9E01235F3F4FAE01DD
:10410000495F5F4FBE016F5F7F4FC5010E94220E66
:10411000D82ECE0101960E945A0BCE0107960E941E
:104120005A0BCE010D960E945A0BDD2021F0C801DA
:104130000E94C10A962ECE0143960E945A0BD110BE
:104140000DC00E94DA086BE072E081E293E00E9409
:104150000F09CE0149960E945A0B84CEF1E09F16BA
:1041600009F476C060EE72E0CE0143960E94FC0B2B
:10417000C5010E94640F63EB71E0F50180819181BC
:104180000E94520461E0F501808191810E94C30880
:1041900061EF72E0CE0107960E94FC0B6FE572E0C2
:1041A000CE010D960E94FC0B18EEE12E13E0F12ECD
:1041B00000E010E09E01295F3F4FAE01435F5F4F7B
:1041C000B501CE0101960E943F0DBE016F5F7F4F8A
:1041D000CE0143960E940F0BCE0101960E945A0B0E
:1041E000CE010D960E945A0BCE0107960E945A0BE3
:1041F0006FE572E0CE0101960E94FC0BBE016F5F7D
:104200007F4FCE0143960E94F40A0196B1F461EF0C
:1042100072E0CE0107960E94FC0BBE01695F7F4FE2
:10422000CE0143960E94F40ADD24D394019609F44A
:10423000D12CCE0107960E945A0BCE0101960E9406
:104240005A0BCE0143960E945A0BDD2009F479CF18
:10425000E0909606F090970662E072E0CE01079635
:104260000E94FC0B62E172E0CE0101960E94FC0B01
:10427000AE01495F5F4FBE016F5F7F4FC7010E9474
:10428000E210F82ECE0101960E945A0BCE0107963D
:104290000E945A0BFF2009F45CC0A0909606B090D3
:1042A000970660EE72E0CE0143960E94FC0BC501BA
:1042B0000E94640F6AEA71E0F501808191810E9499
:1042C0000F096BE572E0CE0101960E94FC0B6DEDCB
:1042D00072E0CE0107960E94FC0B6FE572E0CE0102
:1042E0000D960E94FC0B18EEC12E13E0D12EE12C8E
:1042F000F12C8E010D5E1F4F9E012F5F3F4FAE01CF
:10430000495F5F4FBE01635F7F4FC5010E94220E70
:10431000CE010D960E945A0BCE0107960E945A0BB1
:10432000CE0101960E945A0B0E94DA08B80181E280
:1043300093E00E9444046EED72E081E293E00E94FB
:104340006908C8010E945A0B0E94DA0869EF71E0FF
:10435000FCCE0E94DA0862EE71E0F7CE80919406FE
:1043600090919506019709F07DCD64E670E080E0BC
:1043700090E00E94740780919504803308F051C04A
:1043800061E08FE00E943E0680919504282F30E086
:10439000F901EE0FFF1FE20FF31FEC5FFB4F90815F
:1043A000907C9F60908310929604109297042CE06A
:1043B000622F8AD7829FB001112430E020E0AB0148
:1043C000420F531FFA01EE0FFF1FE40FF51FEC5FC2
:1043D000FB4F908196FD17C02F5F3F4F2C3031056A
:1043E00071F7813009F0E8C31092800082E0809379
:1043F00081001092850010928400B19A80916F0024
:10440000826080936F00E09195048E2F90E0FC0114
:10441000EE0FFF1FE80FF91FEC5FFB4F80818064F8
:10442000808361E08CE00E943E0660E08DE00E94A7
:104430003E0661E080E10E943E0661E080E00E946D
:104440003E0661E085E00E943E0661E084E00E9455
:104450003E0661E082E00E943E0661E08EE00E943E
:104460003E0661E08CE00E943E0660E08DE00E9426
:104470003E0664E670E080E090E00E9474078AE502
:1044800090E00E94DE038FE090E00E94DE0306D8F9
:1044900062E370E080E090E00E94740784E190E0C5
:1044A0000E94DE030E944E1A62E370E080E090E01A
:1044B0000E94740789E190E00E94DE030E944E1A78
:1044C00062E370E080E090E00E9474078EE190E08B
:1044D0000E94DE030E944E1A62E370E080E090E0EA
:1044E0000E94740783E290E00E94DE030E944E1A4D
:1044F00062E370E080E090E00E94740788E290E060
:104500000E94DE030E944E1A62E370E080E090E0B9
:104510000E9474078DE290E00E94DE030E944E1A12
:1045200062E370E080E090E00E94740782E390E034
:104530000E94DE030E944E1A62E370E080E090E089
:104540000E94740787E390E00E94DE030E944E1AE7
:1045500062E370E080E090E00E9474078CE390E0FA
:104560000E94DE030E944E1A62E370E080E090E059
:104570000E94740781E490E00E94DE030E944E1ABC
:1045800062E370E080E090E00E94740786E490E0CF
:104590000E94DE030E944E1A62E370E080E090E029
:1045A0000E9474078BE490E00E94DE030E944E1A82
:1045B00062E370E080E090E00E94740780E590E0A4
:1045C0000E94DE030E944E1A62E370E080E090E0F9
:1045D0000E94740785E590E00E94DE030E944E1A57
:1045E00062E370E080E090E00E9474078AE590E06A
:1045F0000E94DE030E944E1A62E370E080E090E0C9
:104600000E9474078FE590E00E94DE030E944E1A1C
:1046100062E370E080E090E00E94740784E690E03E
:104620000E94DE030E944E1A62E370E080E090E098
:104630000E94740789E690E00E94DE030E944E1AF1
:1046400062E370E080E090E00E9474078EE690E004
:104650000E94DE030E944E1A62E370E080E090E068
:104660000E94740783E790E00E94DE030E944E1AC6
:1046700062E370E080E090E00E94740788E790E0D9
:104680000E94DE030E944E1A62E370E080E090E038
:104690000E9474078DE790E00E94DE030E944E1A8C
:1046A00062E370E080E090E00E94740782E890E0AE
:1046B0000E94DE030E944E1A62E370E080E090E008
:1046C0000E94740787E890E00E94DE030E944E1A61
:1046D00062E370E080E090E00E9474078CE890E074
:1046E0000E94DE030E944E1A62E370E080E090E0D8
:1046F0000E94740781E990E00E94DE030E944E1A36
:1047000062E370E080E090E00E94740786E990E048
:104710000E94DE030E944E1A62E370E080E090E0A7
:104720000E9474078BE990E00E94DE030E944E1AFB
:1047300062E370E080E090E00E94740780EA90E01D
:104740000E94DE030E944E1A62E370E080E090E077
:104750000E9474078BE990E00E94DE030E944E1ACB
:1047600062E370E080E090E00E94740786E990E0E8
:104770000E94DE030E944E1A62E370E080E090E047
:104780000E94740781E990E00E94DE030E944E1AA5
:1047900062E370E080E090E00E9474078CE890E0B3
:1047A0000E94DE030E944E1A62E370E080E090E017
:1047B0000E94740787E890E00E94DE030E944E1A70
:1047C00062E370E080E090E00E94740782E890E08D
:1047D0000E94DE030E944E1A62E370E080E090E0E7
:1047E0000E9474078DE790E00E94DE030E944E1A3B
:1047F00062E370E080E090E00E94740788E790E058
:104800000E94DE030E944E1A62E370E080E090E0B6
:104810000E94740783E790E00E94DE030E944E1A14
:1048200062E370E080E090E00E9474078EE690E022
:104830000E94DE030E944E1A62E370E080E090E086
:104840000E94740789E690E00E94DE030E944E1ADF
:1048500062E370E080E090E00E94740784E690E0FC
:104860000E94DE030E944E1A62E370E080E090E056
:104870000E9474078FE590E00E94DE030E944E1AAA
:1048800062E370E080E090E00E9474078AE590E0C7
:104890000E94DE030E944E1A62E370E080E090E026
:1048A0000E94740785E590E00E94DE030E944E1A84
:1048B00062E370E080E090E00E94740780E590E0A1
:1048C0000E94DE030E944E1A62E370E080E090E0F6
:1048D0000E9474078BE490E00E94DE030E944E1A4F
:1048E00062E370E080E090E00E94740786E490E06C
:1048F0000E94DE030E944E1A62E370E080E090E0C6
:104900000E94740781E490E00E94DE030E944E1A28
:1049100062E370E080E090E00E9474078CE390E036
:104920000E94DE030E944E1A62E370E080E090E095
:104930000E94740787E390E00E94DE030E944E1AF3
:1049400062E370E080E090E00E94740782E390E010
:104950000E94DE030E944E1A62E370E080E090E065
:104960000E9474078DE290E00E94DE030E944E1ABE
:1049700062E370E080E090E00E94740788E290E0DB
:104980000E94DE030E944E1A62E370E080E090E035
:104990000E94740783E290E00E94DE030E944E1A98
:1049A00062E370E080E090E00E9474078EE190E0A6
:1049B0000E94DE030E944E1A62E370E080E090E005
:1049C0000E94740789E190E00E94DE030E944E1A63
:1049D00062E370E080E090E00E94740784E190E080
:1049E0000E94DE030E944E1A62E370E080E090E0D5
:1049F0000E9474078FE090E00E94DE030E944E1A2E
:104A000084EFC82EDD24D394E12CF12C0E94A5075D
:104A1000672B682B692B09F4FBC00E94A5078090C7
:104A20001D0390901E03A0901F03B09020036815F3
:104A300079058A059B0508F4FAC080901D039090C3
:104A40001E03A0901F03B09020039B01AC01281906
:104A500039094A095B0949015A013AEF8316910461
:104A6000A104B10408F4DCC060931D0370931E031D
:104A700080931F0390932003C092CC03D092CD0368
:104A8000E092CE03F092CF031092D0031092D103A4
:104A90001092D2031092D3038091C4039091C50366
:104AA000A091C603B091C7038093C8039093C90334
:104AB000A093CA03B093CB030E94A5076093C403DD
:104AC0007093C5038093C6039093C7030E94A50704
:104AD0004B015C016BEF72E081E293E00E94690898
:104AE0002AE041E050E060E070E081E293E00E9463
:104AF000780862E073E081E293E00E9469082AE0AE
:104B0000B501A40181E293E00E94780864E073E0BB
:104B100081E293E00E9469088091C4039091C503EB
:104B2000A091C603B091C703B501A401481B590B5E
:104B30006A0B7B0B2AE081E293E00E94780864E034
:104B400073E081E293E00E9469084091C4035091B0
:104B5000C5036091C6037091C7038091C80390910B
:104B6000C903A091CA03B091CB03481B590B6A0B30
:104B70007B0B2AE081E293E00E94780866E073E014
:104B800081E293E00E9469080E94A507AB01BC0185
:104B90002AE081E293E00E94780888E093E00E9496
:104BA000EA080E94A5076093C4037093C50380932D
:104BB000C6039093C70334C0823061F41092900012
:104BC00080939100109295001092940088BB80937E
:104BD000710019CC833069F41092A00082E08093B8
:104BE000A1001092A5001092A40089BB80937200CE
:104BF0000ACC811108CC1092200182E0809321011F
:104C000010922501109224018ABB80937300FBCB84
:104C10000E94A507623071058105910508F0FDCE5F
:104C20008DE796E00E94B0120E947F05EFCE609360
:104C30001D0370931E0380931F0390932003FDCEEA
:104C400083EA97E00C945A0B0F931F93CF93DF9353
:104C50008230910510F482E090E0E091AB07F09192
:104C6000AC0730E020E0B0E0A0E0309799F42115E7
:104C7000310509F44AC0281B390B24303105D8F519
:104C80008A819B816115710589F1FB019383828380
:104C9000FE0111C0408151810281138148175907DB
:104CA000E0F04817590799F4109761F012960C93A9
:104CB000129713961C933296CF01DF91CF911F91DB
:104CC0000F9108950093AB071093AC07F4CF211513
:104CD000310551F04217530738F0A901DB019A0161
:104CE000BD01DF01F801C1CFEF01F9CF9093AC070F
:104CF0008093AB07CDCFFE01E20FF31F8193919319
:104D00002250310939832883D7CF2091A9073091C8
:104D1000AA07232B41F420913F02309140023093A7
:104D2000AA072093A90720913D0230913E02211548
:104D3000310541F42DB73EB74091410250914202F6
:104D4000241B350BE091A907F091AA07E217F3079E
:104D5000A0F42E1B3F0B2817390778F0AC014E5FEB
:104D60005F4F2417350748F04E0F5F1F5093AA0777
:104D70004093A907819391939FCFF0E0E0E09CCF0F
:104D8000CF93DF930097E9F0FC01329713821282F0
:104D9000A091AB07B091AC07ED0130E020E0109797
:104DA000A1F420813181820F931F2091A9073091B6
:104DB000AA072817390709F061C0F093AA07E09302
:104DC000A907DF91CF910895EA01CE17DF07E8F533
:104DD0004A815B819E0141155105B1F7E901FB83D1
:104DE000EA8349915991C40FD51FEC17FD0761F46F
:104DF000808191810296840F951FE90199838883B0
:104E0000828193819B838A83F0E0E0E012968D910A
:104E10009C9113970097B9F52D913C911197CD0175
:104E20000296820F931F2091A9073091AA07281795
:104E3000390739F6309751F51092AC071092AB074D
:104E4000B093AA07A093A907BCCFD383C2834081A4
:104E50005181840F951FC817D90761F44E5F5F4FCA
:104E600088819981480F591F518340838A819B8192
:104E7000938382832115310509F0B0CFF093AC07FD
:104E8000E093AB079ECFFD01DC01C0CF13821282FD
:104E9000D7CFFC0188279927E89421912032E9F3A4
:104EA000293010F02E30C8F32B3239F02D3231F486
:104EB000689403C059D0820F911D219120532A304C
:104EC000C8F31EF4909581959F4F08951F93FC01A0
:104ED00099278827BC01E89411911032E9F3193021
:104EE00010F01E30C8F31B3249F01D3241F46894B3
:104EF00005C025D0610F711D811D911D11911053A9
:104F00001A30B8F33EF490958095709561957F4F77
:104F10008F4F9F4F1F910895FB01DC0102C0059048
:104F20000D9241505040D8F70895BB274A3031F4D4
:104F3000992322F4BDE2909581959F4F1EC0592F71
:104F4000482F372F262F660F771F881F991F660F50
:104F5000771F881F991F620F731F841F951F660F8D
:104F6000771F881F991F08957AE0979F902D879F3C
:104F7000802D910D11240895BB27FB015527AA27E9
:104F8000880F991FAA1FA41710F0A41B83955051D6
:104F9000B9F7A05DAA3308F0A95DA193009779F74E
:104FA000B111B1931192CB0100C0DC01FC01672F5C
:104FB00071917723E1F7329704C07C916D937083F0
:104FC0006291AE17BF07C8F30895E89409C097FB34
:104FD0003EF490958095709561957F4F8F4F9F4FD0
:104FE0009923A9F0F92F96E9BB279395F695879514
:104FF00077956795B795F111F8CFFAF4BB0F11F4D7
:1050000060FF1BC06F5F7F4F8F4F9F4F16C088237D
:1050100011F096E911C0772321F09EE8872F762FB3
:1050200005C0662371F096E8862F70E060E02AF0F4
:105030009A95660F771F881FDAF7880F96958795E0
:1050400097F908950BD078C069D028F06ED018F089
:10505000952309F05AC05FC01124A2C07ED0A0F3EE
:10506000959FD1F3950F50E0551F629FF001729FFD
:10507000BB27F00DB11D639FAA27F00DB11DAA1F1C
:10508000649F6627B00DA11D661F829F2227B00D69
:10509000A11D621F739FB00DA11D621F839FA00DF4
:1050A000611D221F749F3327A00D611D231F849F44
:1050B000600D211D822F762F6A2F11249F5750409B
:1050C0008AF0E1F088234AF0EE0FFF1FBB1F661F36
:1050D000771F881F91505040A9F79E3F510570F0EF
:1050E00014C05EC05F3FECF3983EDCF38695779585
:1050F0006795B795F795E7959F5FC1F7FE2B880FEA
:10510000911D9695879597F9089597F99F6780E87F
:1051100070E060E008959FEF80EC089500240A9409
:105120001616170618060906089500240A94121682
:105130001306140605060895092E0394000C11F4B5
:10514000882352F0BB0F40F4BF2B11F460FF04C062
:105150006F5F7F4F8F4F9F4F089557FD9058440FBB
:10516000551F59F05F3F71F04795880F97FB991FC6
:1051700061F09F3F79F08795089512161306140683
:10518000551FF2CF4695F1DF08C016161706180610
:10519000991FF1CF86957105610508940895E894EB
:1051A000BB2766277727CB0197F90895A1E21A2E2E
:1051B000AA1BBB1BFD010DC0AA1FBB1FEE1FFF1FBB
:1051C000A217B307E407F50720F0A21BB30BE40B0B
:1051D000F50B661F771F881F991F1A9469F7609552
:1051E0007095809590959B01AC01BD01CF0108950C
:1051F000052E97FB16F400940FD057FD05D0D6DF8F
:1052000007FC02D046F408C0509540953095219592
:105210003F4F4F4F5F4F08959095809570956195E2
:105220007F4F8F4F9F4F08950FD0A59F900DB49F34
:10523000900DA49F800D911D11240895B7FFF4CF08
:10524000F3DF821B930B0895A29FB001B39FC001AF
:10525000A39F700D811D1124911DB29F700D811DA2
:105260001124911D089504D06894B11199CF089527
:105270007CDF88F09F5790F0B92F9927B751A0F0A5
:10528000D1F0660F771F881F991F1AF0BA95C9F7DA
:1052900012C0B13081F083DFB1E0089580CF672F75
:1052A000782F8827B85F39F0B93FCCF3869577958A
:1052B0006795B395D9F73EF4909580957095619573
:1052C0007F4F8F4F9F4F0895991B79E004C0991F1E
:1052D000961708F0961B881F7A95C9F78095089550
:1052E000EE0FFF1F881F8BBF0790F691E02D1994DA
:1052F0004F925F926F927F928F929F92AF92BF92E6
:10530000CF92DF92EF92FF920F931F93CF93DF9391
:105310008C01009791F4CB01DF91CF911F910F91F8
:10532000FF90EF90DF90CF90BF90AF909F908F90C5
:105330007F906F905F904F9087CCFC01E60FF71F36
:105340009C0122503109E217F30708F4AAC0D901E1
:10535000CD91DC911197C617D70718F1C530D1054B
:1053600070F0CE0104978617970748F0C61BD70B3D
:105370002297C193D1936D937C93CF0101DDC80136
:10538000DF91CF911F910F91FF90EF90DF90CF9021
:10539000BF90AF909F908F907F906F905F904F9055
:1053A00008955B01AC1ABD0A4C018C0E9D1EA091A4
:1053B000AB07B091AC07512C412CF12CE12C10978C
:1053C00031F58091A9079091AA078815990509F0F0
:1053D0005CC04616570608F058C080913D02909177
:1053E0003E02009741F48DB79EB740914102509123
:1053F0004202841B950BE817F90708F052C0F0939E
:10540000AA07E093A907F90171836083B8CF8D9152
:105410009C91119712966C90129713967C9013970B
:10542000A815B90559F56C0142E0C40ED11CCA1487
:10543000DB0420F1AC014A195B09DA0112961597D9
:1054400080F06282738251834083D9016D937C9393
:10545000E114F10471F0D7011396FC93EE931297C7
:105460008ECF22968C0F9D1FF90191838083F301CB
:10547000EFCFF093AC07E093AB0781CF4816590606
:1054800008F42C017D01D3019ACFCB01DDDB7C0137
:10549000009739F0AE01B80107D0C80171DC87016F
:1054A0006ECF10E000E06BCFFB01DC0102C0019089
:1054B0000D9241505040D8F70895FC018191861714
:1054C00021F08823D9F7992708953197CF010895BE
:1054D000FB01DC018D91019080190110D9F3990B2A
:1054E0000895FB01DC0101900D920020E1F7089581
:1054F000FB01DC014150504048F001900D9200202A
:10550000C9F701C01D9241505040E0F70895FB01DA
:1055100051915523A9F0BF01DC014D91451741116F
:10552000E1F759F4CD010190002049F04D9140156B
:105530004111C9F3FB014111EFCF81E090E00197E8
:10554000089513E0C4E6D3E000E005C0802FFE011B
:10555000C7DE2196011DC536D10780E00807B1F7E7
:04556000F894FFCFED
:1055640001006A6F6C6C79636F636F6E75743631AA
:1055740036004E455447454152323900756E6362D8
:1055840050384751715F676D512D717777574A6D68
:105594006B61427551686F667673616E000000AD91
:1055A4000780000000000014057604A3046005D4FD
:1055B40004B204C6042B4950442C000D0A0D0A4FB2
:1055C4004B0054435000414C524541445920434FF1
:1055D4004E4E454354004552524F52004641494CA9
:1055E400006C696E6B206973206E6F7400696E00C5
:1055F4006F75740070776D00707500647700617763
:10560400003E0053454E44204F4B007677005665CC
:105614007273696F6E20302E312E3300564D445014
:10562400565F317C315F564D4450560A00626C79A6
:105634006E6B2D636C6F75642E636F6D000D0D0AB8
:10564400004C696E6B206973206275696C646564D3
:10565400006E6F206368616E676500564D44504567
:105664005F003A323A007C005F564D4450450000DA
:020000023000CC
:10E000000D9489F10D94B2F10D94B2F10D94B2F129
:10E010000D94B2F10D94B2F10D94B2F10D94B2F1F0
:10E020000D94B2F10D94B2F10D94B2F10D94B2F1E0
:10E030000D94B2F10D94B2F10D94B2F10D94B2F1D0
:10E040000D94B2F10D94B2F10D94B2F10D94B2F1C0
:10E050000D94B2F10D94B2F10D94B2F10D94B2F1B0
:10E060000D94B2F10D94B2F10D94B2F10D94B2F1A0
:10E070000D94B2F10D94B2F10D94B2F10D94B2F190
:10E080000D94B2F10D94B2F10D94B2F10D94B2F180
:10E090000D94B2F10D94B2F10D94B2F10D94B2F170
:10E0A0000D94B2F10D94B2F10D94B2F10D94B2F160
:10E0B0000D94B2F10D94B2F10D94B2F10D94B2F150
:10E0C0000D94B2F10D94B2F10D94B2F10D94B2F140
:10E0D0000D94B2F10D94B2F10D94B2F10D94B2F130
:10E0E0000D94B2F141546D656761323536300041AF
:10E0F000726475696E6F206578706C6F72657220DE
:10E1000073746B3530305632206279204D4C530099
:10E11000426F6F746C6F616465723E004875683F52
:10E1200000436F6D70696C6564206F6E203D200048
:10E130004350552054797065202020203D20005FF9
:10E140005F4156525F415243485F5F3D2000415658
:10E1500052204C696243205665723D20004743437C
:10E160002056657273696F6E203D20004350552024
:10E1700049442020202020203D20004C6F7720663D
:10E18000757365202020203D20004869676820665F
:10E190007573652020203D200045787420667573D6
:10E1A00065202020203D20004C6F636B2066757336
:10E1B000652020203D20004D617220203720323024
:10E1C000313300312E362E3800342E332E350056A2
:10E1D00023202020414444522020206F7020636F70
:10E1E00064652020202020696E73747275637469E1
:10E1F0006F6E2061646472202020496E74657272B3
:10E20000757074006E6F20766563746F7200726A49
:10E210006D702020006A6D70200057686174207056
:10E220006F72743A00506F7274206E6F7420737541
:10E2300070706F72746564004D7573742062652030
:10E2400061206C6574746572002000577269747483
:10E25000696E672045450052656164696E672045B7
:10E26000450045452065727220636E743D00504F35
:10E27000525400303D5A65726F2061646472003FF1
:10E280003D43505520737461747300403D454550C3
:10E29000524F4D207465737400423D426C696E6B41
:10E2A000204C454400453D44756D70204545505215
:10E2B0004F4D00463D44756D7020464C415348001B
:10E2C000483D48656C70004C3D4C69737420492F83
:10E2D0004F20506F72747300513D51756974005234
:10E2E0003D44756D702052414D00563D73686F7707
:10E2F00020696E7465727275707420566563746FF0
:10E30000727300593D506F727420626C696E6B00BD
:10E310002A0011241FBECFEFD1E2DEBFCDBF01E046
:10E320000CBF12E0A0E0B2E0EEE1FDEF03E00BBFB6
:10E3300002C007900D92A030B107D9F712E0A0E01B
:10E34000B2E001C01D92AE30B107E1F70F9460F367
:10E350000D948DFE01E20EBF0FEF0DBF11241FBE05
:10E360000D9460F30D9400F020E030E040ED57E0B4
:10E3700005C0FA013197F1F72F5F3F4F2817390792
:10E38000C0F308959C01260F311DC901A0E0B0E043
:10E390002F5F3F4FABBFFC018791882361F08093D3
:10E3A000C6008091C00086FFFCCF8091C0008064D1
:10E3B0008093C000EACF08958DE08093C6008091DD
:10E3C000C00086FFFCCF8091C00080648093C000B5
:10E3D0008AE08093C6008091C00086FFFCCF8091C8
:10E3E000C00080648093C00008950F94C2F10F9420
:10E3F000DCF10895FC019081992359F09093C600B7
:10E400008091C00086FFFCCF8091C0008064809323
:10E41000C0003196992379F70895282F982F929567
:10E420009F70892F805D8A3308F0895F8093C600D2
:10E430008091C00086FFFCCF8091C00080648093F3
:10E44000C000822F8F70982F905D9A3308F0995FEB
:10E450009093C6008091C00086FFFCCF8091C000E1
